{
  "contractName": "Controller",
  "abi": [
    {
      "constant": true,
      "inputs": [
        {
          "name": "",
          "type": "bytes32"
        }
      ],
      "name": "certifierList",
      "outputs": [
        {
          "name": "",
          "type": "address"
        }
      ],
      "payable": false,
      "stateMutability": "view",
      "type": "function",
      "signature": "0x181729f7"
    },
    {
      "constant": true,
      "inputs": [
        {
          "name": "",
          "type": "bytes32"
        }
      ],
      "name": "mineList",
      "outputs": [
        {
          "name": "",
          "type": "address"
        }
      ],
      "payable": false,
      "stateMutability": "view",
      "type": "function",
      "signature": "0x5cf281f5"
    },
    {
      "constant": true,
      "inputs": [
        {
          "name": "",
          "type": "bytes32"
        }
      ],
      "name": "processingCenterList",
      "outputs": [
        {
          "name": "",
          "type": "address"
        }
      ],
      "payable": false,
      "stateMutability": "view",
      "type": "function",
      "signature": "0xa811e241"
    },
    {
      "constant": true,
      "inputs": [
        {
          "name": "",
          "type": "bytes32"
        }
      ],
      "name": "jewelerList",
      "outputs": [
        {
          "name": "",
          "type": "address"
        }
      ],
      "payable": false,
      "stateMutability": "view",
      "type": "function",
      "signature": "0xc5e2f343"
    },
    {
      "inputs": [
        {
          "name": "_admin",
          "type": "address"
        },
        {
          "name": "_diamondRegistry",
          "type": "address"
        }
      ],
      "payable": false,
      "stateMutability": "nonpayable",
      "type": "constructor",
      "signature": "constructor"
    },
    {
      "anonymous": false,
      "inputs": [
        {
          "indexed": true,
          "name": "mineId",
          "type": "bytes32"
        },
        {
          "indexed": false,
          "name": "location",
          "type": "bytes32"
        },
        {
          "indexed": false,
          "name": "addedBy",
          "type": "address"
        },
        {
          "indexed": false,
          "name": "admin",
          "type": "address"
        }
      ],
      "name": "MineAdded",
      "type": "event",
      "signature": "0x570739bc5e6e4db38985cfbafb60e99b9e998eb035abde6b984c3fc8e0875286"
    },
    {
      "anonymous": false,
      "inputs": [
        {
          "indexed": true,
          "name": "processingCenterId",
          "type": "bytes32"
        },
        {
          "indexed": false,
          "name": "addedBy",
          "type": "address"
        },
        {
          "indexed": false,
          "name": "admin",
          "type": "address"
        }
      ],
      "name": "ProcessingCenterAdded",
      "type": "event",
      "signature": "0x8c3721763fd2b22a94a88a83dc963cee77672355a8c21b24809a3f3402341bff"
    },
    {
      "anonymous": false,
      "inputs": [
        {
          "indexed": true,
          "name": "certifierId",
          "type": "bytes32"
        },
        {
          "indexed": false,
          "name": "addedBy",
          "type": "address"
        },
        {
          "indexed": false,
          "name": "admin",
          "type": "address"
        }
      ],
      "name": "CertifierAdded",
      "type": "event",
      "signature": "0xc27c16767f510d2ed3c767fceed8ba743c6177186fdc12ee18e3e6a77df7ebf5"
    },
    {
      "anonymous": false,
      "inputs": [
        {
          "indexed": true,
          "name": "jewelerId",
          "type": "bytes32"
        },
        {
          "indexed": false,
          "name": "addedBy",
          "type": "address"
        },
        {
          "indexed": false,
          "name": "admin",
          "type": "address"
        }
      ],
      "name": "JewelerAdded",
      "type": "event",
      "signature": "0x02574b087768059f3b9d820c21a5312d67fec195486c6d9acec33e33de2ad660"
    },
    {
      "constant": false,
      "inputs": [],
      "name": "startRegistry",
      "outputs": [],
      "payable": false,
      "stateMutability": "nonpayable",
      "type": "function",
      "signature": "0x976e68a3"
    },
    {
      "constant": false,
      "inputs": [
        {
          "name": "_mineId",
          "type": "bytes32"
        },
        {
          "name": "_location",
          "type": "bytes32"
        },
        {
          "name": "_mineAdmin",
          "type": "address"
        }
      ],
      "name": "addMine",
      "outputs": [],
      "payable": false,
      "stateMutability": "nonpayable",
      "type": "function",
      "signature": "0xe1440fa5"
    },
    {
      "constant": false,
      "inputs": [
        {
          "name": "_processingCenterId",
          "type": "bytes32"
        },
        {
          "name": "_admin",
          "type": "address"
        }
      ],
      "name": "addProcessingCenter",
      "outputs": [],
      "payable": false,
      "stateMutability": "nonpayable",
      "type": "function",
      "signature": "0xcf57a730"
    },
    {
      "constant": false,
      "inputs": [
        {
          "name": "_certifierId",
          "type": "bytes32"
        },
        {
          "name": "_certifierAdmin",
          "type": "address"
        }
      ],
      "name": "addCertifier",
      "outputs": [],
      "payable": false,
      "stateMutability": "nonpayable",
      "type": "function",
      "signature": "0x2ef16b80"
    },
    {
      "constant": false,
      "inputs": [
        {
          "name": "_jewelerId",
          "type": "bytes32"
        },
        {
          "name": "_jewelerAdmin",
          "type": "address"
        }
      ],
      "name": "addJeweler",
      "outputs": [],
      "payable": false,
      "stateMutability": "nonpayable",
      "type": "function",
      "signature": "0xa96e9829"
    },
    {
      "constant": false,
      "inputs": [],
      "name": "getDiamondIndex",
      "outputs": [
        {
          "name": "_diamondIndex",
          "type": "bytes32"
        }
      ],
      "payable": false,
      "stateMutability": "nonpayable",
      "type": "function",
      "signature": "0xf332ca27"
    }
  ],
  "bytecode": "0x6080604052600060065534801561001557600080fd5b506040516040806144488339810180604052604081101561003557600080fd5b81019080805190602001909291908051906020019092919050505081600460006101000a81548173ffffffffffffffffffffffffffffffffffffffff021916908373ffffffffffffffffffffffffffffffffffffffff16021790555080600560006101000a81548173ffffffffffffffffffffffffffffffffffffffff021916908373ffffffffffffffffffffffffffffffffffffffff1602179055505050614365806100e36000396000f3fe6080604052600436106100a4576000357c0100000000000000000000000000000000000000000000000000000000900463ffffffff168063181729f7146100a95780632ef16b80146101245780635cf281f51461017f578063976e68a3146101fa578063a811e24114610211578063a96e98291461028c578063c5e2f343146102e7578063cf57a73014610362578063e1440fa5146103bd578063f332ca2714610422575b600080fd5b3480156100b557600080fd5b506100e2600480360360208110156100cc57600080fd5b810190808035906020019092919050505061044d565b604051808273ffffffffffffffffffffffffffffffffffffffff1673ffffffffffffffffffffffffffffffffffffffff16815260200191505060405180910390f35b34801561013057600080fd5b5061017d6004803603604081101561014757600080fd5b8101908080359060200190929190803573ffffffffffffffffffffffffffffffffffffffff169060200190929190505050610480565b005b34801561018b57600080fd5b506101b8600480360360208110156101a257600080fd5b8101908080359060200190929190505050610756565b604051808273ffffffffffffffffffffffffffffffffffffffff1673ffffffffffffffffffffffffffffffffffffffff16815260200191505060405180910390f35b34801561020657600080fd5b5061020f610789565b005b34801561021d57600080fd5b5061024a6004803603602081101561023457600080fd5b81019080803590602001909291905050506108e1565b604051808273ffffffffffffffffffffffffffffffffffffffff1673ffffffffffffffffffffffffffffffffffffffff16815260200191505060405180910390f35b34801561029857600080fd5b506102e5600480360360408110156102af57600080fd5b8101908080359060200190929190803573ffffffffffffffffffffffffffffffffffffffff169060200190929190505050610914565b005b3480156102f357600080fd5b506103206004803603602081101561030a57600080fd5b8101908080359060200190929190505050610ca9565b604051808273ffffffffffffffffffffffffffffffffffffffff1673ffffffffffffffffffffffffffffffffffffffff16815260200191505060405180910390f35b34801561036e57600080fd5b506103bb6004803603604081101561038557600080fd5b8101908080359060200190929190803573ffffffffffffffffffffffffffffffffffffffff169060200190929190505050610cdc565b005b3480156103c957600080fd5b50610420600480360360608110156103e057600080fd5b810190808035906020019092919080359060200190929190803573ffffffffffffffffffffffffffffffffffffffff169060200190929190505050611071565b005b34801561042e57600080fd5b50610437611399565b6040518082815260200191505060405180910390f35b60026020528060005260406000206000915054906101000a900473ffffffffffffffffffffffffffffffffffffffff1681565b3373ffffffffffffffffffffffffffffffffffffffff16600460009054906101000a900473ffffffffffffffffffffffffffffffffffffffff1673ffffffffffffffffffffffffffffffffffffffff1614151561056b576040517f08c379a00000000000000000000000000000000000000000000000000000000081526004018080602001828103825260348152602001807f4d696e6520646f65736e2774206578697374206f722061646d696e206469642081526020017f6e6f742073656e6420746865207265717565737400000000000000000000000081525060400191505060405180910390fd5b600073ffffffffffffffffffffffffffffffffffffffff166002600084815260200190815260200160002060009054906101000a900473ffffffffffffffffffffffffffffffffffffffff1673ffffffffffffffffffffffffffffffffffffffff16141515610668576040517f08c379a00000000000000000000000000000000000000000000000000000000081526004018080602001828103825260258152602001807f43657274696669657220776974682073616d6520496420616c7265616479206581526020017f786973747300000000000000000000000000000000000000000000000000000081525060400191505060405180910390fd5b806002600084815260200190815260200160002060006101000a81548173ffffffffffffffffffffffffffffffffffffffff021916908373ffffffffffffffffffffffffffffffffffffffff160217905550817fc27c16767f510d2ed3c767fceed8ba743c6177186fdc12ee18e3e6a77df7ebf53383604051808373ffffffffffffffffffffffffffffffffffffffff1673ffffffffffffffffffffffffffffffffffffffff1681526020018273ffffffffffffffffffffffffffffffffffffffff1673ffffffffffffffffffffffffffffffffffffffff1681526020019250505060405180910390a25050565b60006020528060005260406000206000915054906101000a900473ffffffffffffffffffffffffffffffffffffffff1681565b3373ffffffffffffffffffffffffffffffffffffffff16600460009054906101000a900473ffffffffffffffffffffffffffffffffffffffff1673ffffffffffffffffffffffffffffffffffffffff16141515610874576040517f08c379a00000000000000000000000000000000000000000000000000000000081526004018080602001828103825260348152602001807f4d696e6520646f65736e2774206578697374206f722061646d696e206469642081526020017f6e6f742073656e6420746865207265717565737400000000000000000000000081525060400191505060405180910390fd5b600061087e6113b8565b604051809103906000f08015801561089a573d6000803e3d6000fd5b50905080600560006101000a81548173ffffffffffffffffffffffffffffffffffffffff021916908373ffffffffffffffffffffffffffffffffffffffff16021790555050565b60016020528060005260406000206000915054906101000a900473ffffffffffffffffffffffffffffffffffffffff1681565b3373ffffffffffffffffffffffffffffffffffffffff16600460009054906101000a900473ffffffffffffffffffffffffffffffffffffffff1673ffffffffffffffffffffffffffffffffffffffff161415156109ff576040517f08c379a00000000000000000000000000000000000000000000000000000000081526004018080602001828103825260348152602001807f4d696e6520646f65736e2774206578697374206f722061646d696e206469642081526020017f6e6f742073656e6420746865207265717565737400000000000000000000000081525060400191505060405180910390fd5b600073ffffffffffffffffffffffffffffffffffffffff166003600084815260200190815260200160002060009054906101000a900473ffffffffffffffffffffffffffffffffffffffff1673ffffffffffffffffffffffffffffffffffffffff16141515610afc576040517f08c379a00000000000000000000000000000000000000000000000000000000081526004018080602001828103825260238152602001807f4a6577656c657220616c72656164792065786973747320776974682073616d6581526020017f204964000000000000000000000000000000000000000000000000000000000081525060400191505060405180910390fd5b60008282600560009054906101000a900473ffffffffffffffffffffffffffffffffffffffff16610b2b6113c8565b808481526020018373ffffffffffffffffffffffffffffffffffffffff1673ffffffffffffffffffffffffffffffffffffffff1681526020018273ffffffffffffffffffffffffffffffffffffffff1673ffffffffffffffffffffffffffffffffffffffff1681526020019350505050604051809103906000f080158015610bb7573d6000803e3d6000fd5b509050806003600085815260200190815260200160002060006101000a81548173ffffffffffffffffffffffffffffffffffffffff021916908373ffffffffffffffffffffffffffffffffffffffff160217905550827f02574b087768059f3b9d820c21a5312d67fec195486c6d9acec33e33de2ad6603384604051808373ffffffffffffffffffffffffffffffffffffffff1673ffffffffffffffffffffffffffffffffffffffff1681526020018273ffffffffffffffffffffffffffffffffffffffff1673ffffffffffffffffffffffffffffffffffffffff1681526020019250505060405180910390a2505050565b60036020528060005260406000206000915054906101000a900473ffffffffffffffffffffffffffffffffffffffff1681565b3373ffffffffffffffffffffffffffffffffffffffff16600460009054906101000a900473ffffffffffffffffffffffffffffffffffffffff1673ffffffffffffffffffffffffffffffffffffffff16141515610dc7576040517f08c379a00000000000000000000000000000000000000000000000000000000081526004018080602001828103825260348152602001807f4d696e6520646f65736e2774206578697374206f722061646d696e206469642081526020017f6e6f742073656e6420746865207265717565737400000000000000000000000081525060400191505060405180910390fd5b600073ffffffffffffffffffffffffffffffffffffffff166001600084815260200190815260200160002060009054906101000a900473ffffffffffffffffffffffffffffffffffffffff1673ffffffffffffffffffffffffffffffffffffffff16141515610ec4576040517f08c379a000000000000000000000000000000000000000000000000000000000815260040180806020018281038252602d8152602001807f50726f63657373696e672043656e74657220776974682073616d65204964206181526020017f6c7265616479206578697374730000000000000000000000000000000000000081525060400191505060405180910390fd5b60008282600560009054906101000a900473ffffffffffffffffffffffffffffffffffffffff16610ef36113d8565b808481526020018373ffffffffffffffffffffffffffffffffffffffff1673ffffffffffffffffffffffffffffffffffffffff1681526020018273ffffffffffffffffffffffffffffffffffffffff1673ffffffffffffffffffffffffffffffffffffffff1681526020019350505050604051809103906000f080158015610f7f573d6000803e3d6000fd5b509050806001600085815260200190815260200160002060006101000a81548173ffffffffffffffffffffffffffffffffffffffff021916908373ffffffffffffffffffffffffffffffffffffffff160217905550827f8c3721763fd2b22a94a88a83dc963cee77672355a8c21b24809a3f3402341bff3384604051808373ffffffffffffffffffffffffffffffffffffffff1673ffffffffffffffffffffffffffffffffffffffff1681526020018273ffffffffffffffffffffffffffffffffffffffff1673ffffffffffffffffffffffffffffffffffffffff1681526020019250505060405180910390a2505050565b3373ffffffffffffffffffffffffffffffffffffffff16600460009054906101000a900473ffffffffffffffffffffffffffffffffffffffff1673ffffffffffffffffffffffffffffffffffffffff1614151561115c576040517f08c379a00000000000000000000000000000000000000000000000000000000081526004018080602001828103825260348152602001807f4d696e6520646f65736e2774206578697374206f722061646d696e206469642081526020017f6e6f742073656e6420746865207265717565737400000000000000000000000081525060400191505060405180910390fd5b600073ffffffffffffffffffffffffffffffffffffffff1660008085815260200190815260200160002060009054906101000a900473ffffffffffffffffffffffffffffffffffffffff1673ffffffffffffffffffffffffffffffffffffffff16141515611232576040517f08c379a00000000000000000000000000000000000000000000000000000000081526004018080602001828103825260208152602001807f4d696e6520616c72656164792065786973747320776974682073616d6520496481525060200191505060405180910390fd5b600083838361123f6113e8565b808481526020018381526020018273ffffffffffffffffffffffffffffffffffffffff1673ffffffffffffffffffffffffffffffffffffffff1681526020019350505050604051809103906000f08015801561129f573d6000803e3d6000fd5b5090508060008086815260200190815260200160002060006101000a81548173ffffffffffffffffffffffffffffffffffffffff021916908373ffffffffffffffffffffffffffffffffffffffff160217905550837f570739bc5e6e4db38985cfbafb60e99b9e998eb035abde6b984c3fc8e0875286843385604051808481526020018373ffffffffffffffffffffffffffffffffffffffff1673ffffffffffffffffffffffffffffffffffffffff1681526020018273ffffffffffffffffffffffffffffffffffffffff1673ffffffffffffffffffffffffffffffffffffffff168152602001935050505060405180910390a250505050565b6000600660008154809291906001019190505550600654600102905090565b60405161024b806113f983390190565b604051610aeb8061164483390190565b6040516119898061212f83390190565b60405161088280613ab88339019056fe608060405234801561001057600080fd5b50336000806101000a81548173ffffffffffffffffffffffffffffffffffffffff021916908373ffffffffffffffffffffffffffffffffffffffff1602179055506101eb806100606000396000f3fe60806040526004361061004c576000357c0100000000000000000000000000000000000000000000000000000000900463ffffffff1680637ef5029814610051578063d1c0995c146100cc575b600080fd5b34801561005d57600080fd5b5061008a6004803603602081101561007457600080fd5b8101908080359060200190929190505050610131565b604051808273ffffffffffffffffffffffffffffffffffffffff1673ffffffffffffffffffffffffffffffffffffffff16815260200191505060405180910390f35b3480156100d857600080fd5b5061012f600480360360608110156100ef57600080fd5b810190808035906020019092919080359060200190929190803573ffffffffffffffffffffffffffffffffffffffff169060200190929190505050610164565b005b60016020528060005260406000206000915054906101000a900473ffffffffffffffffffffffffffffffffffffffff1681565b3382826001600087815260200190815260200160002060006101000a81548173ffffffffffffffffffffffffffffffffffffffff021916908373ffffffffffffffffffffffffffffffffffffffff160217905550505050505056fea165627a7a7230582009e4b07477ece9819ab1c8b0cd58ffc711e971f76f35a761d0f277fd2b01cb130029608060405234801561001057600080fd5b50604051606080610aeb8339810180604052606081101561003057600080fd5b810190808051906020019092919080519060200190929190805190602001909291905050508260008190555081600160006101000a81548173ffffffffffffffffffffffffffffffffffffffff021916908373ffffffffffffffffffffffffffffffffffffffff16021790555033600460006101000a81548173ffffffffffffffffffffffffffffffffffffffff021916908373ffffffffffffffffffffffffffffffffffffffff16021790555080600260006101000a81548173ffffffffffffffffffffffffffffffffffffffff021916908373ffffffffffffffffffffffffffffffffffffffff1602179055505050506109ba806101316000396000f3fe608060405260043610610057576000357c0100000000000000000000000000000000000000000000000000000000900463ffffffff16806385cd413c1461005c578063a12342c5146100a3578063f6ca097c14610108575b600080fd5b34801561006857600080fd5b506100a16004803603604081101561007f57600080fd5b8101908080359060200190929190803515159060200190929190505050610143565b005b3480156100af57600080fd5b50610106600480360360608110156100c657600080fd5b8101908080359060200190929190803573ffffffffffffffffffffffffffffffffffffffff1690602001909291908035906020019092919050505061040e565b005b34801561011457600080fd5b506101416004803603602081101561012b57600080fd5b81019080803590602001909291905050506106bd565b005b600160009054906101000a900473ffffffffffffffffffffffffffffffffffffffff1673ffffffffffffffffffffffffffffffffffffffff163373ffffffffffffffffffffffffffffffffffffffff16141515610208576040517f08c379a00000000000000000000000000000000000000000000000000000000081526004018080602001828103825260208152602001807f4f6e6c792061646d696e206f66206a6577656c65722063616e2061636365737381525060200191505060405180910390fd5b60006003600084815260200190815260200160002060000160019054906101000a900473ffffffffffffffffffffffffffffffffffffffff1690506000600260009054906101000a900473ffffffffffffffffffffffffffffffffffffffff1673ffffffffffffffffffffffffffffffffffffffff16637ef50298856040518263ffffffff167c01000000000000000000000000000000000000000000000000000000000281526004018082815260200191505060206040518083038186803b1580156102d457600080fd5b505afa1580156102e8573d6000803e3d6000fd5b505050506040513d60208110156102fe57600080fd5b810190808051906020019092919050505090508073ffffffffffffffffffffffffffffffffffffffff168273ffffffffffffffffffffffffffffffffffffffff161415156103da576040517f08c379a000000000000000000000000000000000000000000000000000000000815260040180806020018281038252602b8152602001807f4469616d6f6e64496420616e64204469616d6f6e644164647265737320646f6581526020017f73206e6f74206d6174636800000000000000000000000000000000000000000081525060400191505060405180910390fd5b826003600086815260200190815260200160002060000160006101000a81548160ff02191690831515021790555050505050565b3381600460009054906101000a900473ffffffffffffffffffffffffffffffffffffffff1673ffffffffffffffffffffffffffffffffffffffff1663a811e241826040518263ffffffff167c01000000000000000000000000000000000000000000000000000000000281526004018082815260200191505060206040518083038186803b15801561049f57600080fd5b505afa1580156104b3573d6000803e3d6000fd5b505050506040513d60208110156104c957600080fd5b810190808051906020019092919050505073ffffffffffffffffffffffffffffffffffffffff168273ffffffffffffffffffffffffffffffffffffffff1614151561057c576040517f08c379a000000000000000000000000000000000000000000000000000000000815260040180806020018281038252601d8152602001807f4e6f7420612076616c69642070726f63657373696e672063656e74657200000081525060200191505060405180910390fd5b60008490508073ffffffffffffffffffffffffffffffffffffffff1663e51d8e786000546040518263ffffffff167c010000000000000000000000000000000000000000000000000000000002815260040180828152602001915050600060405180830381600087803b1580156105f257600080fd5b505af1158015610606573d6000803e3d6000fd5b5050505060408051908101604052806000151581526020018673ffffffffffffffffffffffffffffffffffffffff168152506003600088815260200190815260200160002060008201518160000160006101000a81548160ff02191690831515021790555060208201518160000160016101000a81548173ffffffffffffffffffffffffffffffffffffffff021916908373ffffffffffffffffffffffffffffffffffffffff160217905550905050505050505050565b600160009054906101000a900473ffffffffffffffffffffffffffffffffffffffff1673ffffffffffffffffffffffffffffffffffffffff163373ffffffffffffffffffffffffffffffffffffffff16141515610782576040517f08c379a00000000000000000000000000000000000000000000000000000000081526004018080602001828103825260208152602001807f4f6e6c792061646d696e206f66206a6577656c65722063616e2061636365737381525060200191505060405180910390fd5b6003600082815260200190815260200160002060000160009054906101000a900460ff161515610840576040517f08c379a00000000000000000000000000000000000000000000000000000000081526004018080602001828103825260268152602001807f4469616d6f6e64206973206e6f7420796574207665726966696564206279206a81526020017f6577656c6572000000000000000000000000000000000000000000000000000081525060400191505060405180910390fd5b6000600260009054906101000a900473ffffffffffffffffffffffffffffffffffffffff1673ffffffffffffffffffffffffffffffffffffffff16637ef50298836040518263ffffffff167c01000000000000000000000000000000000000000000000000000000000281526004018082815260200191505060206040518083038186803b1580156108d157600080fd5b505afa1580156108e5573d6000803e3d6000fd5b505050506040513d60208110156108fb57600080fd5b810190808051906020019092919050505090508073ffffffffffffffffffffffffffffffffffffffff1663232b0cb76040518163ffffffff167c0100000000000000000000000000000000000000000000000000000000028152600401600060405180830381600087803b15801561097257600080fd5b505af1158015610986573d6000803e3d6000fd5b50505050505056fea165627a7a72305820baa762786f03a54950a4ba9e3c5b94ffdfc28cc05caddf2a2e43630d33f0b2f50029608060405234801561001057600080fd5b506040516060806119898339810180604052606081101561003057600080fd5b8101908080519060200190929190805190602001909291908051906020019092919050505081600160006101000a81548173ffffffffffffffffffffffffffffffffffffffff021916908373ffffffffffffffffffffffffffffffffffffffff1602179055508260008190555033600260006101000a81548173ffffffffffffffffffffffffffffffffffffffff021916908373ffffffffffffffffffffffffffffffffffffffff16021790555080600360006101000a81548173ffffffffffffffffffffffffffffffffffffffff021916908373ffffffffffffffffffffffffffffffffffffffff160217905550505050611858806101316000396000f3fe60806040526004361061006d576000357c0100000000000000000000000000000000000000000000000000000000900463ffffffff1680632c213aa01461007257806336c9e292146100ad5780633e2556041461010657806378be04d31461017357806389af6267146101b8575b600080fd5b34801561007e57600080fd5b506100ab6004803603602081101561009557600080fd5b8101908080359060200190929190505050610233565b005b3480156100b957600080fd5b50610104600480360360808110156100d057600080fd5b81019080803590602001909291908035906020019092919080359060200190929190803590602001909291905050506103ad565b005b34801561011257600080fd5b50610171600480360360c081101561012957600080fd5b810190808035906020019092919080359060200190929190803590602001909291908035906020019092919080359060200190929190803590602001909291905050506105d0565b005b34801561017f57600080fd5b506101b66004803603604081101561019657600080fd5b810190808035906020019092919080359060200190929190505050610ab7565b005b3480156101c457600080fd5b506101f1600480360360208110156101db57600080fd5b8101908080359060200190929190505050610e74565b604051808273ffffffffffffffffffffffffffffffffffffffff1673ffffffffffffffffffffffffffffffffffffffff16815260200191505060405180910390f35b3373ffffffffffffffffffffffffffffffffffffffff16600160009054906101000a900473ffffffffffffffffffffffffffffffffffffffff1673ffffffffffffffffffffffffffffffffffffffff1614151561031e576040517f08c379a00000000000000000000000000000000000000000000000000000000081526004018080602001828103825260348152602001807f4d696e6520646f65736e2774206578697374206f722061646d696e206469642081526020017f6e6f742073656e6420746865207265717565737400000000000000000000000081525060400191505060405180910390fd5b807f9686ac7f0acc7774932a246f6a65602c05eb218f6da15fe8a4402498ea4fba8260046000848152602001908152602001600020600401546040518082815260200191505060405180910390a2600460008281526020019081526020016000206000808201600090556001820160009055600282016000905560038201600090556004820160009055505050565b826000600260009054906101000a900473ffffffffffffffffffffffffffffffffffffffff1673ffffffffffffffffffffffffffffffffffffffff16635cf281f5836040518263ffffffff167c01000000000000000000000000000000000000000000000000000000000281526004018082815260200191505060206040518083038186803b15801561043f57600080fd5b505afa158015610453573d6000803e3d6000fd5b505050506040513d602081101561046957600080fd5b81019080805190602001909291905050509050600073ffffffffffffffffffffffffffffffffffffffff168173ffffffffffffffffffffffffffffffffffffffff16141580156104e457503373ffffffffffffffffffffffffffffffffffffffff168173ffffffffffffffffffffffffffffffffffffffff16145b1515610558576040517f08c379a00000000000000000000000000000000000000000000000000000000081526004018080602001828103825260108152602001807f4e6f7420612076616c6964206d696e650000000000000000000000000000000081525060200191505060405180910390fd5b60a06040519081016040528087815260200186815260200185815260200184815260200184815250600460008881526020019081526020016000206000820151816000015560208201518160010155604082015181600201556060820151816003015560808201518160040155905050505050505050565b3373ffffffffffffffffffffffffffffffffffffffff16600160009054906101000a900473ffffffffffffffffffffffffffffffffffffffff1673ffffffffffffffffffffffffffffffffffffffff161415156106bb576040517f08c379a00000000000000000000000000000000000000000000000000000000081526004018080602001828103825260348152602001807f4d696e6520646f65736e2774206578697374206f722061646d696e206469642081526020017f6e6f742073656e6420746865207265717565737400000000000000000000000081525060400191505060405180910390fd5b6000600260009054906101000a900473ffffffffffffffffffffffffffffffffffffffff1673ffffffffffffffffffffffffffffffffffffffff1663f332ca276040518163ffffffff167c0100000000000000000000000000000000000000000000000000000000028152600401602060405180830381600087803b15801561074357600080fd5b505af1158015610757573d6000803e3d6000fd5b505050506040513d602081101561076d57600080fd5b81019080805190602001909291905050509050600081886000548989898989600260009054906101000a900473ffffffffffffffffffffffffffffffffffffffff166107b7610ea7565b808a81526020018981526020018881526020018781526020018681526020018581526020018481526020018381526020018273ffffffffffffffffffffffffffffffffffffffff1673ffffffffffffffffffffffffffffffffffffffff1681526020019950505050505050505050604051809103906000f080158015610841573d6000803e3d6000fd5b509050600360009054906101000a900473ffffffffffffffffffffffffffffffffffffffff1673ffffffffffffffffffffffffffffffffffffffff1663d1c0995c83600054846040518463ffffffff167c0100000000000000000000000000000000000000000000000000000000028152600401808481526020018381526020018273ffffffffffffffffffffffffffffffffffffffff1673ffffffffffffffffffffffffffffffffffffffff1681526020019350505050600060405180830381600087803b15801561091357600080fd5b505af1158015610927573d6000803e3d6000fd5b50505050806005600084815260200190815260200160002060006101000a81548173ffffffffffffffffffffffffffffffffffffffff021916908373ffffffffffffffffffffffffffffffffffffffff1602179055506000600460008a8152602001908152602001600020600401549050878110151515610a36576040517f08c379a00000000000000000000000000000000000000000000000000000000081526004018080602001828103825260228152602001807f6e6f206d6f7265206f7265206c65667420746f20637265617465206469616d6f81526020017f6e6400000000000000000000000000000000000000000000000000000000000081525060400191505060405180910390fd5b878103600460008b81526020019081526020016000206004018190555082897fc346c4bf2ef676aa4e35b4c9fbd08ee36a38288be179d09faf736221c4657f9e8a8a8a8a8a604051808681526020018581526020018481526020018381526020018281526020019550505050505060405180910390a3505050505050505050565b3373ffffffffffffffffffffffffffffffffffffffff16600160009054906101000a900473ffffffffffffffffffffffffffffffffffffffff1673ffffffffffffffffffffffffffffffffffffffff16141515610ba2576040517f08c379a00000000000000000000000000000000000000000000000000000000081526004018080602001828103825260348152602001807f4d696e6520646f65736e2774206578697374206f722061646d696e206469642081526020017f6e6f742073656e6420746865207265717565737400000000000000000000000081525060400191505060405180910390fd5b60006005600084815260200190815260200160002060009054906101000a900473ffffffffffffffffffffffffffffffffffffffff169050600073ffffffffffffffffffffffffffffffffffffffff168173ffffffffffffffffffffffffffffffffffffffff1614151515610ca5576040517f08c379a000000000000000000000000000000000000000000000000000000000815260040180806020018281038252603b8152602001807f737065636966696564206469616d6f6e64206973206e6f742070726573656e7481526020017f2077697468207468652070726f63657373696e672063656e746572000000000081525060400191505060405180910390fd5b6000600260009054906101000a900473ffffffffffffffffffffffffffffffffffffffff1673ffffffffffffffffffffffffffffffffffffffff1663c5e2f343846040518263ffffffff167c01000000000000000000000000000000000000000000000000000000000281526004018082815260200191505060206040518083038186803b158015610d3657600080fd5b505afa158015610d4a573d6000803e3d6000fd5b505050506040513d6020811015610d6057600080fd5b810190808051906020019092919050505090508073ffffffffffffffffffffffffffffffffffffffff1663a12342c585846000546040518463ffffffff167c0100000000000000000000000000000000000000000000000000000000028152600401808481526020018373ffffffffffffffffffffffffffffffffffffffff1673ffffffffffffffffffffffffffffffffffffffff1681526020018281526020019350505050600060405180830381600087803b158015610e2057600080fd5b505af1158015610e34573d6000803e3d6000fd5b505050506005600085815260200190815260200160002060006101000a81549073ffffffffffffffffffffffffffffffffffffffff021916905550505050565b60056020528060005260406000206000915054906101000a900473ffffffffffffffffffffffffffffffffffffffff1681565b60405161097580610eb88339019056fe608060405234801561001057600080fd5b5060405161012080610975833981018060405261012081101561003257600080fd5b81019080805190602001909291908051906020019092919080519060200190929190805190602001909291908051906020019092919080519060200190929190805190602001909291908051906020019092919080519060200190929190505050886000819055508760098190555086600a819055508560018190555084600281905550836003819055508260048190555081600581905550600160068190555080600b60006101000a81548173ffffffffffffffffffffffffffffffffffffffff021916908373ffffffffffffffffffffffffffffffffffffffff1602179055505050505050505050506108498061012c6000396000f3fe608060405260043610610078576000357c0100000000000000000000000000000000000000000000000000000000900463ffffffff168063200d2ed21461007d578063232b0cb7146100a85780635c85a1ad146100bf5780636c115c6c14610106578063e51d8e7814610131578063ed92abf01461016c575b600080fd5b34801561008957600080fd5b50610092610197565b6040518082815260200191505060405180910390f35b3480156100b457600080fd5b506100bd61019d565b005b3480156100cb57600080fd5b50610104600480360360408110156100e257600080fd5b81019080803590602001909291908035151590602001909291905050506103da565b005b34801561011257600080fd5b5061011b6105d2565b6040518082815260200191505060405180910390f35b34801561013d57600080fd5b5061016a6004803603602081101561015457600080fd5b81019080803590602001909291905050506105d8565b005b34801561017857600080fd5b50610181610817565b6040518082815260200191505060405180910390f35b60065481565b600b60009054906101000a900473ffffffffffffffffffffffffffffffffffffffff1673ffffffffffffffffffffffffffffffffffffffff1663c5e2f3436007546040518263ffffffff167c01000000000000000000000000000000000000000000000000000000000281526004018082815260200191505060206040518083038186803b15801561022e57600080fd5b505afa158015610242573d6000803e3d6000fd5b505050506040513d602081101561025857600080fd5b810190808051906020019092919050505073ffffffffffffffffffffffffffffffffffffffff163373ffffffffffffffffffffffffffffffffffffffff16141515610331576040517f08c379a000000000000000000000000000000000000000000000000000000000815260040180806020018281038252602d8152602001807f4a6577656c6572206973206e6f7420617574686f72697a656420746f2073656c81526020017f6c20746865206469616d6f6e640000000000000000000000000000000000000081525060400191505060405180910390fd5b60046006541415156103d1576040517f08c379a00000000000000000000000000000000000000000000000000000000081526004018080602001828103825260368152602001807f546865206469616d6f6e6420697320656974686572206e6f742063657269666981526020017f6564206f72206e6f742077697468206a6577656c65720000000000000000000081525060400191505060405180910390fd5b60068081905550565b81338073ffffffffffffffffffffffffffffffffffffffff16600b60009054906101000a900473ffffffffffffffffffffffffffffffffffffffff1673ffffffffffffffffffffffffffffffffffffffff1663181729f7846040518263ffffffff167c01000000000000000000000000000000000000000000000000000000000281526004018082815260200191505060206040518083038186803b15801561048257600080fd5b505afa158015610496573d6000803e3d6000fd5b505050506040513d60208110156104ac57600080fd5b810190808051906020019092919050505073ffffffffffffffffffffffffffffffffffffffff1614151561056e576040517f08c379a00000000000000000000000000000000000000000000000000000000081526004018080602001828103825260258152602001807f436572746966696572496420646f6573206e6f74206d6174636820746865207381526020017f656e64657200000000000000000000000000000000000000000000000000000081525060400191505060405180910390fd5b821561058157600260068190555061058a565b60036006819055505b7e9c874d2e9cdea9fc2fc3f9ff61e2d786684f4051c3ec76a38190dcdb5c820c848460405180838152602001821515151581526020019250505060405180910390a150505050565b60075481565b80338073ffffffffffffffffffffffffffffffffffffffff16600b60009054906101000a900473ffffffffffffffffffffffffffffffffffffffff1673ffffffffffffffffffffffffffffffffffffffff1663c5e2f343846040518263ffffffff167c01000000000000000000000000000000000000000000000000000000000281526004018082815260200191505060206040518083038186803b15801561068057600080fd5b505afa158015610694573d6000803e3d6000fd5b505050506040513d60208110156106aa57600080fd5b810190808051906020019092919050505073ffffffffffffffffffffffffffffffffffffffff1614151561076c576040517f08c379a00000000000000000000000000000000000000000000000000000000081526004018080602001828103825260298152602001807f4a6577656c6572496420646f65736e2774206d6174636820776974682073656e81526020017f646572206f66207478000000000000000000000000000000000000000000000081525060400191505060405180910390fd5b826007819055506002600654141561078b576004600681905550610812565b600360065414156107a3576005600681905550610811565b6040517f08c379a000000000000000000000000000000000000000000000000000000000815260040180806020018281038252601c8152602001807f4469616d6f6e64206973206e6f7420796574206365727469666965640000000081525060200191505060405180910390fd5b5b505050565b600a548156fea165627a7a72305820ab7d5b5d182b2a516236fb4cf7c5a04a16e30b7b4e2ac3d9cb1eb776bce0b56f0029a165627a7a723058209fd57806b9d26fa4cb7e24d56e204a0103a433766a414827aa832bd9362040630029608060405234801561001057600080fd5b506040516060806108828339810180604052606081101561003057600080fd5b810190808051906020019092919080519060200190929190805190602001909291905050508260018190555081600281905550806000806101000a81548173ffffffffffffffffffffffffffffffffffffffff021916908373ffffffffffffffffffffffffffffffffffffffff16021790555033600360006101000a81548173ffffffffffffffffffffffffffffffffffffffff021916908373ffffffffffffffffffffffffffffffffffffffff16021790555050505061078c806100f66000396000f3fe608060405260043610610057576000357c0100000000000000000000000000000000000000000000000000000000900463ffffffff1680630b90b04e1461005c578063516f279e146100a1578063dd8283c7146100cc575b600080fd5b34801561006857600080fd5b5061009f6004803603604081101561007f57600080fd5b810190808035906020019092919080359060200190929190505050610125565b005b3480156100ad57600080fd5b506100b661059a565b6040518082815260200191505060405180910390f35b3480156100d857600080fd5b50610123600480360360808110156100ef57600080fd5b81019080803590602001909291908035906020019092919080359060200190929190803590602001909291905050506105a0565b005b6000809054906101000a900473ffffffffffffffffffffffffffffffffffffffff1673ffffffffffffffffffffffffffffffffffffffff163373ffffffffffffffffffffffffffffffffffffffff161415156101e9576040517f08c379a000000000000000000000000000000000000000000000000000000000815260040180806020018281038252601a8152602001807f53656e646572206973206e6f742061206d696e652061646d696e00000000000081525060200191505060405180910390fd5b6000600360009054906101000a900473ffffffffffffffffffffffffffffffffffffffff16905060008173ffffffffffffffffffffffffffffffffffffffff1663a811e241846040518263ffffffff167c01000000000000000000000000000000000000000000000000000000000281526004018082815260200191505060206040518083038186803b15801561027f57600080fd5b505afa158015610293573d6000803e3d6000fd5b505050506040513d60208110156102a957600080fd5b81019080805190602001909291905050509050600073ffffffffffffffffffffffffffffffffffffffff168173ffffffffffffffffffffffffffffffffffffffff1614151515610387576040517f08c379a00000000000000000000000000000000000000000000000000000000081526004018080602001828103825260328152602001807f5468652070726f63657373696e672063656e746572207769746820676976656e81526020017f20696420646f6573206e6f74206578697374000000000000000000000000000081525060400191505060405180910390fd5b6000819050610394610731565b600460008781526020019081526020016000206080604051908101604052908160008201548152602001600182015481526020016002820154815260200160038201548152505090506000600102816000015114151515610483576040517f08c379a00000000000000000000000000000000000000000000000000000000081526004018080602001828103825260268152602001807f4f7265207769746820737065636966696564206f7265496420646f65736e277481526020017f206578697374000000000000000000000000000000000000000000000000000081525060400191505060405180910390fd5b8173ffffffffffffffffffffffffffffffffffffffff166336c9e292878360200151846040015185606001516040518563ffffffff167c010000000000000000000000000000000000000000000000000000000002815260040180858152602001848152602001838152602001828152602001945050505050600060405180830381600087803b15801561051657600080fd5b505af115801561052a573d6000803e3d6000fd5b5050505060046000878152602001908152602001600020600080820160009055600182016000905560028201600090556003820160009055505084867f1c7765113e449bdd972976ff4e92f939426ac189d6dc06975ccacfe253cdb3a160405160405180910390a3505050505050565b60025481565b6000809054906101000a900473ffffffffffffffffffffffffffffffffffffffff1673ffffffffffffffffffffffffffffffffffffffff163373ffffffffffffffffffffffffffffffffffffffff16141515610664576040517f08c379a000000000000000000000000000000000000000000000000000000000815260040180806020018281038252601a8152602001807f53656e646572206973206e6f742061206d696e652061646d696e00000000000081525060200191505060405180910390fd5b61066c610731565b608060405190810160405280868152602001858152602001848152602001838152509050806004600087815260200190815260200160002060008201518160000155602082015181600101556040820151816002015560608201518160030155905050806020015181600001517f0bc0f59e844a806718b2e0d1f41cb47822f78a83b1242516da3ff9ebe69005226002548460400151856060015160405180848152602001838152602001828152602001935050505060405180910390a35050505050565b60806040519081016040528060008019168152602001600080191681526020016000815260200160008152509056fea165627a7a72305820637ea393f16353ce220ff431fb018e64c63f9a20d6c49163b7f2d00f84afdb300029a165627a7a723058204e0076f2ce0eb480f01738a92c45109b256a60ad34b84ba6c06a0e37c92917e80029",
  "source": "pragma solidity ^0.5.0;\n\nimport \"./Mine.sol\";\nimport \"./ProcessingCenter.sol\";\nimport \"./Jeweler.sol\";\nimport \"./DiamondRegistry.sol\";\n\ncontract Controller {\n    mapping(bytes32 => address) public mineList;\n    mapping(bytes32 => address) public processingCenterList;\n    mapping(bytes32 => address) public certifierList;\n    mapping(bytes32 => address) public jewelerList;\n    // TODO- Add multiple admin addresses that have access\n    address admin;\n    address diamondRegistry;\n    \n    uint diamondIndex = 0;\n    \n    event MineAdded(bytes32 indexed mineId, bytes32 location, address addedBy, address admin);\n    // event MineRemoved(bytes32 indexed mineId, address removedBy, string reason);\n    \n    event ProcessingCenterAdded(bytes32 indexed processingCenterId, address addedBy, address admin);\n    // event ProcessingCenterRemoved(bytes32 indexed processingCenterId, address removedBy, string reason);\n    \n    event CertifierAdded(bytes32 indexed certifierId, address addedBy, address admin);\n    // event CertifierRemoved(bytes32 indexed certifierId, address removedBy, string reason);\n    \n    event JewelerAdded(bytes32 indexed jewelerId, address addedBy, address admin);\n    // event JewelerRemoved(bytes32 indexed jewelerId, address removedBy, string reason);\n    \n    constructor(address _admin, address _diamondRegistry) public {\n        admin = _admin;\n        diamondRegistry = _diamondRegistry;\n    }\n    \n    // only allow admin\n    modifier adminOnly(){\n        require(admin == msg.sender, \"Mine doesn't exist or admin did not send the request\");\n        _;\n    }\n\n    function startRegistry() public adminOnly {\n        DiamondRegistry registry = new DiamondRegistry();\n        diamondRegistry = address(registry);\n    }\n    \n    function addMine(bytes32 _mineId, bytes32 _location, address _mineAdmin) public adminOnly() {\n        require(mineList[_mineId] == address(0x00), \"Mine already exists with same Id\");\n        Mine newMine = new Mine(_mineId, _location, _mineAdmin);\n        mineList[_mineId] = address(newMine);\n        emit MineAdded(_mineId, _location, msg.sender, _mineAdmin);\n    }\n    \n    // TODO- Write removal functions for all parties\n    // function removeMine(bytes32 _mineId, string memory reason) public adminOnly() {\n    //     require(mineList[_mineId] != address(0x00), \"Mine doesn't exist\");\n        \n    // }\n    \n    function addProcessingCenter(bytes32 _processingCenterId, address _admin) public adminOnly() {\n        require(processingCenterList[_processingCenterId] == address(0x00), \"Processing Center with same Id already exists\");\n        ProcessingCenter processor = new ProcessingCenter(_processingCenterId, _admin, diamondRegistry);\n        processingCenterList[_processingCenterId] = address(processor);\n        emit ProcessingCenterAdded(_processingCenterId, msg.sender, _admin);\n    }\n    \n    function addCertifier(bytes32 _certifierId, address _certifierAdmin) public adminOnly() {\n        require(certifierList[_certifierId] == address(0x00), \"Certifier with same Id already exists\");\n        certifierList[_certifierId] = _certifierAdmin;\n        emit CertifierAdded(_certifierId, msg.sender, _certifierAdmin);\n    }\n    \n    function addJeweler(bytes32 _jewelerId, address _jewelerAdmin) public adminOnly {\n        require(jewelerList[_jewelerId] == address(0x00), \"Jeweler already exists with same Id\");\n        Jeweler jeweler = new Jeweler(_jewelerId, _jewelerAdmin, diamondRegistry);\n        jewelerList[_jewelerId] = address(jeweler);\n        emit JewelerAdded(_jewelerId, msg.sender, _jewelerAdmin);\n    }\n    \n    // generates an unique number for each diamond\n    function getDiamondIndex() public returns(bytes32 _diamondIndex){\n        diamondIndex++;\n        return bytes32(diamondIndex);\n    }\n}",
  "sourcePath": "/Users/prateekyammanuru/work/interviews/bosch/Diamond_Supply_Chain/contracts/contracts/Controller.sol",
  "compiler": {
    "name": "solc",
    "version": "0.5.0+commit.1d4f565a.Emscripten.clang"
  },
  "schemaVersion": "3.0.1",
  "updatedAt": "2019-01-31T18:02:59.717Z",
  "devdoc": {
    "methods": {}
  },
  "userdoc": {
    "methods": {}
  }
}