{
  "contractName": "Diamond",
  "abi": [
    {
      "constant": true,
      "inputs": [],
      "name": "status",
      "outputs": [
        {
          "name": "",
          "type": "uint256"
        }
      ],
      "payable": false,
      "stateMutability": "view",
      "type": "function"
    },
    {
      "constant": true,
      "inputs": [],
      "name": "jewelerId",
      "outputs": [
        {
          "name": "",
          "type": "bytes32"
        }
      ],
      "payable": false,
      "stateMutability": "view",
      "type": "function"
    },
    {
      "constant": true,
      "inputs": [],
      "name": "pcId",
      "outputs": [
        {
          "name": "",
          "type": "bytes32"
        }
      ],
      "payable": false,
      "stateMutability": "view",
      "type": "function"
    },
    {
      "inputs": [
        {
          "name": "_diamondId",
          "type": "bytes32"
        },
        {
          "name": "_oreId",
          "type": "bytes32"
        },
        {
          "name": "_pcId",
          "type": "bytes32"
        },
        {
          "name": "_caratWeight",
          "type": "uint256"
        },
        {
          "name": "_clarity",
          "type": "uint256"
        },
        {
          "name": "_color",
          "type": "uint256"
        },
        {
          "name": "_cut",
          "type": "uint256"
        },
        {
          "name": "_shape",
          "type": "uint256"
        },
        {
          "name": "_controllerAddress",
          "type": "address"
        }
      ],
      "payable": false,
      "stateMutability": "nonpayable",
      "type": "constructor"
    },
    {
      "anonymous": false,
      "inputs": [
        {
          "indexed": false,
          "name": "certifierId",
          "type": "bytes32"
        },
        {
          "indexed": false,
          "name": "isCertificationSuccess",
          "type": "bool"
        }
      ],
      "name": "DiamondCertification",
      "type": "event"
    },
    {
      "constant": false,
      "inputs": [
        {
          "name": "_certifierId",
          "type": "bytes32"
        },
        {
          "name": "_isCertified",
          "type": "bool"
        }
      ],
      "name": "certify",
      "outputs": [],
      "payable": false,
      "stateMutability": "nonpayable",
      "type": "function"
    },
    {
      "constant": false,
      "inputs": [
        {
          "name": "_jewelerId",
          "type": "bytes32"
        }
      ],
      "name": "receivedByJeweler",
      "outputs": [],
      "payable": false,
      "stateMutability": "nonpayable",
      "type": "function"
    },
    {
      "constant": false,
      "inputs": [],
      "name": "soldToCustomer",
      "outputs": [],
      "payable": false,
      "stateMutability": "nonpayable",
      "type": "function"
    }
  ],
  "bytecode": "0x608060405234801561001057600080fd5b5060405161012080610975833981018060405261012081101561003257600080fd5b81019080805190602001909291908051906020019092919080519060200190929190805190602001909291908051906020019092919080519060200190929190805190602001909291908051906020019092919080519060200190929190505050886000819055508760098190555086600a819055508560018190555084600281905550836003819055508260048190555081600581905550600160068190555080600b60006101000a81548173ffffffffffffffffffffffffffffffffffffffff021916908373ffffffffffffffffffffffffffffffffffffffff1602179055505050505050505050506108498061012c6000396000f3fe608060405260043610610078576000357c0100000000000000000000000000000000000000000000000000000000900463ffffffff168063200d2ed21461007d578063232b0cb7146100a85780635c85a1ad146100bf5780636c115c6c14610106578063e51d8e7814610131578063ed92abf01461016c575b600080fd5b34801561008957600080fd5b50610092610197565b6040518082815260200191505060405180910390f35b3480156100b457600080fd5b506100bd61019d565b005b3480156100cb57600080fd5b50610104600480360360408110156100e257600080fd5b81019080803590602001909291908035151590602001909291905050506103da565b005b34801561011257600080fd5b5061011b6105d2565b6040518082815260200191505060405180910390f35b34801561013d57600080fd5b5061016a6004803603602081101561015457600080fd5b81019080803590602001909291905050506105d8565b005b34801561017857600080fd5b50610181610817565b6040518082815260200191505060405180910390f35b60065481565b600b60009054906101000a900473ffffffffffffffffffffffffffffffffffffffff1673ffffffffffffffffffffffffffffffffffffffff1663c5e2f3436007546040518263ffffffff167c01000000000000000000000000000000000000000000000000000000000281526004018082815260200191505060206040518083038186803b15801561022e57600080fd5b505afa158015610242573d6000803e3d6000fd5b505050506040513d602081101561025857600080fd5b810190808051906020019092919050505073ffffffffffffffffffffffffffffffffffffffff163373ffffffffffffffffffffffffffffffffffffffff16141515610331576040517f08c379a000000000000000000000000000000000000000000000000000000000815260040180806020018281038252602d8152602001807f4a6577656c6572206973206e6f7420617574686f72697a656420746f2073656c81526020017f6c20746865206469616d6f6e640000000000000000000000000000000000000081525060400191505060405180910390fd5b60046006541415156103d1576040517f08c379a00000000000000000000000000000000000000000000000000000000081526004018080602001828103825260368152602001807f546865206469616d6f6e6420697320656974686572206e6f742063657269666981526020017f6564206f72206e6f742077697468206a6577656c65720000000000000000000081525060400191505060405180910390fd5b60068081905550565b81338073ffffffffffffffffffffffffffffffffffffffff16600b60009054906101000a900473ffffffffffffffffffffffffffffffffffffffff1673ffffffffffffffffffffffffffffffffffffffff1663181729f7846040518263ffffffff167c01000000000000000000000000000000000000000000000000000000000281526004018082815260200191505060206040518083038186803b15801561048257600080fd5b505afa158015610496573d6000803e3d6000fd5b505050506040513d60208110156104ac57600080fd5b810190808051906020019092919050505073ffffffffffffffffffffffffffffffffffffffff1614151561056e576040517f08c379a00000000000000000000000000000000000000000000000000000000081526004018080602001828103825260258152602001807f436572746966696572496420646f6573206e6f74206d6174636820746865207381526020017f656e64657200000000000000000000000000000000000000000000000000000081525060400191505060405180910390fd5b821561058157600260068190555061058a565b60036006819055505b7e9c874d2e9cdea9fc2fc3f9ff61e2d786684f4051c3ec76a38190dcdb5c820c848460405180838152602001821515151581526020019250505060405180910390a150505050565b60075481565b80338073ffffffffffffffffffffffffffffffffffffffff16600b60009054906101000a900473ffffffffffffffffffffffffffffffffffffffff1673ffffffffffffffffffffffffffffffffffffffff1663c5e2f343846040518263ffffffff167c01000000000000000000000000000000000000000000000000000000000281526004018082815260200191505060206040518083038186803b15801561068057600080fd5b505afa158015610694573d6000803e3d6000fd5b505050506040513d60208110156106aa57600080fd5b810190808051906020019092919050505073ffffffffffffffffffffffffffffffffffffffff1614151561076c576040517f08c379a00000000000000000000000000000000000000000000000000000000081526004018080602001828103825260298152602001807f4a6577656c6572496420646f65736e2774206d6174636820776974682073656e81526020017f646572206f66207478000000000000000000000000000000000000000000000081525060400191505060405180910390fd5b826007819055506002600654141561078b576004600681905550610812565b600360065414156107a3576005600681905550610811565b6040517f08c379a000000000000000000000000000000000000000000000000000000000815260040180806020018281038252601c8152602001807f4469616d6f6e64206973206e6f7420796574206365727469666965640000000081525060200191505060405180910390fd5b5b505050565b600a548156fea165627a7a72305820ab7d5b5d182b2a516236fb4cf7c5a04a16e30b7b4e2ac3d9cb1eb776bce0b56f0029",
  "source": "pragma solidity ^0.5.0;\n\nimport \"./Controller.sol\";\n\ncontract Diamond {\n    bytes32 id;\n    uint caratWeight;\n    // We can use enum here as clarity will be based on grades, but it is no a great idea as we\n    // will have to specify the grades exactly and cannot change it later, but if we have this\n    // as numeric, we can do much better in terms of extensibility later.\n    uint clarity;\n    uint color;\n    uint cut;\n    uint shape;\n    // list of status codes\n    // 1 -> diamonds processed from ore\n    // 2 -> diamonds certified\n    // 3 -> diamond certification rejected\n    // 4 -> diamond with Jeweler\n    // 5 -> diamond with certification rejected with Jeweler\n    // 6 -> diamond with customer\n    uint public status;\n    bytes32 public jewelerId;\n    address customer;\n    bytes32 oreId;\n    bytes32 public pcId;\n    Controller controller;\n    \n    event DiamondCertification(bytes32 certifierId, bool isCertificationSuccess);\n    \n    modifier onlyValidJeweler(bytes32 _jewelerId, address _jewelerAddress) {\n        require(controller.jewelerList(_jewelerId) == _jewelerAddress, \"JewelerId doesn't match with sender of tx\");\n        _;\n    }\n    \n    modifier onlyValidCertifier(bytes32 _certifierId, address _certifierAddress) {\n        require(controller.certifierList(_certifierId) == _certifierAddress, \"CertifierId does not match the sender\");\n        _;\n    }\n    \n    constructor(bytes32 _diamondId, bytes32 _oreId, bytes32 _pcId, uint _caratWeight, uint _clarity, uint _color, uint _cut, uint _shape, address _controllerAddress) public {\n        id = _diamondId;\n        oreId = _oreId;\n        pcId = _pcId;\n        caratWeight = _caratWeight;\n        clarity = _clarity;\n        color = _color;\n        cut = _cut;\n        shape = _shape;\n        status = 1;\n        controller = Controller(_controllerAddress);\n    }\n    \n    function certify(bytes32 _certifierId, bool _isCertified) public onlyValidCertifier(_certifierId, msg.sender) {\n        if(_isCertified) {\n            status = 2;\n        } else {\n            status = 3;            \n        }\n        emit DiamondCertification(_certifierId, _isCertified);\n    }\n    \n    function receivedByJeweler(bytes32 _jewelerId) public onlyValidJeweler(_jewelerId, msg.sender) {\n        jewelerId = _jewelerId;\n        if(status == 2) {\n            status = 4;\n        } else if(status == 3) {\n            status = 5;\n        } else {\n            revert(\"Diamond is not yet certified\");\n        }\n    }\n    \n    function soldToCustomer() public {\n        require(msg.sender == controller.jewelerList(jewelerId), \"Jeweler is not authorized to sell the diamond\");\n        require(status == 4, \"The diamond is either not cerified or not with jeweler\");\n        status = 6;\n    }\n\n}",
  "sourcePath": "/Users/prateekyammanuru/work/interviews/bosch/Diamond_Supply_Chain/contracts/contracts/Diamond.sol",
  "compiler": {
    "name": "solc",
    "version": "0.5.0+commit.1d4f565a.Emscripten.clang"
  },
  "schemaVersion": "3.0.1",
  "updatedAt": "2019-01-31T18:02:59.708Z",
  "devdoc": {
    "methods": {}
  },
  "userdoc": {
    "methods": {}
  }
}