{
  "contractName": "DiamondRegistry",
  "abi": [
    {
      "constant": true,
      "inputs": [
        {
          "name": "",
          "type": "bytes32"
        }
      ],
      "name": "registry",
      "outputs": [
        {
          "name": "",
          "type": "address"
        }
      ],
      "payable": false,
      "stateMutability": "view",
      "type": "function",
      "signature": "0x7ef50298"
    },
    {
      "inputs": [],
      "payable": false,
      "stateMutability": "nonpayable",
      "type": "constructor",
      "signature": "constructor"
    },
    {
      "constant": false,
      "inputs": [
        {
          "name": "_diamondId",
          "type": "bytes32"
        },
        {
          "name": "_processingCenterId",
          "type": "bytes32"
        },
        {
          "name": "_diamondAddress",
          "type": "address"
        }
      ],
      "name": "addDiamond",
      "outputs": [],
      "payable": false,
      "stateMutability": "nonpayable",
      "type": "function",
      "signature": "0xd1c0995c"
    }
  ],
  "bytecode": "0x608060405234801561001057600080fd5b50336000806101000a81548173ffffffffffffffffffffffffffffffffffffffff021916908373ffffffffffffffffffffffffffffffffffffffff1602179055506101eb806100606000396000f3fe60806040526004361061004c576000357c0100000000000000000000000000000000000000000000000000000000900463ffffffff1680637ef5029814610051578063d1c0995c146100cc575b600080fd5b34801561005d57600080fd5b5061008a6004803603602081101561007457600080fd5b8101908080359060200190929190505050610131565b604051808273ffffffffffffffffffffffffffffffffffffffff1673ffffffffffffffffffffffffffffffffffffffff16815260200191505060405180910390f35b3480156100d857600080fd5b5061012f600480360360608110156100ef57600080fd5b810190808035906020019092919080359060200190929190803573ffffffffffffffffffffffffffffffffffffffff169060200190929190505050610164565b005b60016020528060005260406000206000915054906101000a900473ffffffffffffffffffffffffffffffffffffffff1681565b3382826001600087815260200190815260200160002060006101000a81548173ffffffffffffffffffffffffffffffffffffffff021916908373ffffffffffffffffffffffffffffffffffffffff160217905550505050505056fea165627a7a7230582009e4b07477ece9819ab1c8b0cd58ffc711e971f76f35a761d0f277fd2b01cb130029",
  "source": "pragma solidity ^0.5.0;\n\nimport \"./Controller.sol\";\n\ncontract DiamondRegistry {\n    Controller controller;\n    mapping(bytes32 => address) public registry;\n    \n    modifier onlyValidProcessingCenter(address processingCenter, bytes32 processingCenterId) {\n        // require(processingCenter == controller.processingCenterList(processingCenterId), \"sender is not a valid processing center\");\n        _;\n    }\n    \n    constructor() public {\n        controller = Controller(msg.sender);\n    }\n    \n    function addDiamond(bytes32 _diamondId, bytes32 _processingCenterId, address _diamondAddress) \n        public \n        onlyValidProcessingCenter(msg.sender, _processingCenterId) {\n        registry[_diamondId] = _diamondAddress;\n    }\n}",
  "sourcePath": "/Users/prateekyammanuru/work/interviews/bosch/Diamond_Supply_Chain/contracts/contracts/DiamondRegistry.sol",
  "compiler": {
    "name": "solc",
    "version": "0.5.0+commit.1d4f565a.Emscripten.clang"
  },
  "schemaVersion": "3.0.1",
  "updatedAt": "2019-01-31T18:02:59.700Z",
  "devdoc": {
    "methods": {}
  },
  "userdoc": {
    "methods": {}
  }
}