{
  "contractName": "Jeweler",
  "abi": [
    {
      "inputs": [
        {
          "name": "_jewelerId",
          "type": "bytes32"
        },
        {
          "name": "_admin",
          "type": "address"
        },
        {
          "name": "_diamondRegistry",
          "type": "address"
        }
      ],
      "payable": false,
      "stateMutability": "nonpayable",
      "type": "constructor"
    },
    {
      "constant": false,
      "inputs": [
        {
          "name": "_diamondId",
          "type": "bytes32"
        },
        {
          "name": "_diamondAddress",
          "type": "address"
        },
        {
          "name": "_processingCenterId",
          "type": "bytes32"
        }
      ],
      "name": "receiveDiamond",
      "outputs": [],
      "payable": false,
      "stateMutability": "nonpayable",
      "type": "function"
    },
    {
      "constant": false,
      "inputs": [
        {
          "name": "_diamondId",
          "type": "bytes32"
        },
        {
          "name": "_isVerified",
          "type": "bool"
        }
      ],
      "name": "verifyDiamond",
      "outputs": [],
      "payable": false,
      "stateMutability": "nonpayable",
      "type": "function"
    },
    {
      "constant": false,
      "inputs": [
        {
          "name": "_diamondId",
          "type": "bytes32"
        }
      ],
      "name": "sellDiamond",
      "outputs": [],
      "payable": false,
      "stateMutability": "nonpayable",
      "type": "function"
    }
  ],
  "bytecode": "0x608060405234801561001057600080fd5b50604051606080610aeb8339810180604052606081101561003057600080fd5b810190808051906020019092919080519060200190929190805190602001909291905050508260008190555081600160006101000a81548173ffffffffffffffffffffffffffffffffffffffff021916908373ffffffffffffffffffffffffffffffffffffffff16021790555033600460006101000a81548173ffffffffffffffffffffffffffffffffffffffff021916908373ffffffffffffffffffffffffffffffffffffffff16021790555080600260006101000a81548173ffffffffffffffffffffffffffffffffffffffff021916908373ffffffffffffffffffffffffffffffffffffffff1602179055505050506109ba806101316000396000f3fe608060405260043610610057576000357c0100000000000000000000000000000000000000000000000000000000900463ffffffff16806385cd413c1461005c578063a12342c5146100a3578063f6ca097c14610108575b600080fd5b34801561006857600080fd5b506100a16004803603604081101561007f57600080fd5b8101908080359060200190929190803515159060200190929190505050610143565b005b3480156100af57600080fd5b50610106600480360360608110156100c657600080fd5b8101908080359060200190929190803573ffffffffffffffffffffffffffffffffffffffff1690602001909291908035906020019092919050505061040e565b005b34801561011457600080fd5b506101416004803603602081101561012b57600080fd5b81019080803590602001909291905050506106bd565b005b600160009054906101000a900473ffffffffffffffffffffffffffffffffffffffff1673ffffffffffffffffffffffffffffffffffffffff163373ffffffffffffffffffffffffffffffffffffffff16141515610208576040517f08c379a00000000000000000000000000000000000000000000000000000000081526004018080602001828103825260208152602001807f4f6e6c792061646d696e206f66206a6577656c65722063616e2061636365737381525060200191505060405180910390fd5b60006003600084815260200190815260200160002060000160019054906101000a900473ffffffffffffffffffffffffffffffffffffffff1690506000600260009054906101000a900473ffffffffffffffffffffffffffffffffffffffff1673ffffffffffffffffffffffffffffffffffffffff16637ef50298856040518263ffffffff167c01000000000000000000000000000000000000000000000000000000000281526004018082815260200191505060206040518083038186803b1580156102d457600080fd5b505afa1580156102e8573d6000803e3d6000fd5b505050506040513d60208110156102fe57600080fd5b810190808051906020019092919050505090508073ffffffffffffffffffffffffffffffffffffffff168273ffffffffffffffffffffffffffffffffffffffff161415156103da576040517f08c379a000000000000000000000000000000000000000000000000000000000815260040180806020018281038252602b8152602001807f4469616d6f6e64496420616e64204469616d6f6e644164647265737320646f6581526020017f73206e6f74206d6174636800000000000000000000000000000000000000000081525060400191505060405180910390fd5b826003600086815260200190815260200160002060000160006101000a81548160ff02191690831515021790555050505050565b3381600460009054906101000a900473ffffffffffffffffffffffffffffffffffffffff1673ffffffffffffffffffffffffffffffffffffffff1663a811e241826040518263ffffffff167c01000000000000000000000000000000000000000000000000000000000281526004018082815260200191505060206040518083038186803b15801561049f57600080fd5b505afa1580156104b3573d6000803e3d6000fd5b505050506040513d60208110156104c957600080fd5b810190808051906020019092919050505073ffffffffffffffffffffffffffffffffffffffff168273ffffffffffffffffffffffffffffffffffffffff1614151561057c576040517f08c379a000000000000000000000000000000000000000000000000000000000815260040180806020018281038252601d8152602001807f4e6f7420612076616c69642070726f63657373696e672063656e74657200000081525060200191505060405180910390fd5b60008490508073ffffffffffffffffffffffffffffffffffffffff1663e51d8e786000546040518263ffffffff167c010000000000000000000000000000000000000000000000000000000002815260040180828152602001915050600060405180830381600087803b1580156105f257600080fd5b505af1158015610606573d6000803e3d6000fd5b5050505060408051908101604052806000151581526020018673ffffffffffffffffffffffffffffffffffffffff168152506003600088815260200190815260200160002060008201518160000160006101000a81548160ff02191690831515021790555060208201518160000160016101000a81548173ffffffffffffffffffffffffffffffffffffffff021916908373ffffffffffffffffffffffffffffffffffffffff160217905550905050505050505050565b600160009054906101000a900473ffffffffffffffffffffffffffffffffffffffff1673ffffffffffffffffffffffffffffffffffffffff163373ffffffffffffffffffffffffffffffffffffffff16141515610782576040517f08c379a00000000000000000000000000000000000000000000000000000000081526004018080602001828103825260208152602001807f4f6e6c792061646d696e206f66206a6577656c65722063616e2061636365737381525060200191505060405180910390fd5b6003600082815260200190815260200160002060000160009054906101000a900460ff161515610840576040517f08c379a00000000000000000000000000000000000000000000000000000000081526004018080602001828103825260268152602001807f4469616d6f6e64206973206e6f7420796574207665726966696564206279206a81526020017f6577656c6572000000000000000000000000000000000000000000000000000081525060400191505060405180910390fd5b6000600260009054906101000a900473ffffffffffffffffffffffffffffffffffffffff1673ffffffffffffffffffffffffffffffffffffffff16637ef50298836040518263ffffffff167c01000000000000000000000000000000000000000000000000000000000281526004018082815260200191505060206040518083038186803b1580156108d157600080fd5b505afa1580156108e5573d6000803e3d6000fd5b505050506040513d60208110156108fb57600080fd5b810190808051906020019092919050505090508073ffffffffffffffffffffffffffffffffffffffff1663232b0cb76040518163ffffffff167c0100000000000000000000000000000000000000000000000000000000028152600401600060405180830381600087803b15801561097257600080fd5b505af1158015610986573d6000803e3d6000fd5b50505050505056fea165627a7a72305820baa762786f03a54950a4ba9e3c5b94ffdfc28cc05caddf2a2e43630d33f0b2f50029",
  "source": "pragma solidity ^0.5.0;\n\nimport \"./Diamond.sol\";\nimport \"./ProcessingCenter.sol\";\nimport \"./Controller.sol\";\nimport \"./DiamondRegistry.sol\";\n\ncontract Jeweler {\n    bytes32 jewelerId;\n    address admin;\n    DiamondRegistry diamondRegistry;\n    struct DiamondDetails {\n        bool isVerified;\n        address diamondAddress;\n    }\n    mapping(bytes32 => DiamondDetails) diamondsWithJeweler;\n    Controller controller;\n    \n    modifier onlyAdmin() {\n        require(msg.sender == admin, \"Only admin of jeweler can access\");\n        _;\n    }\n    \n    modifier onlyValidProcessingCenter(address processingCenter, bytes32 processingCenterId) {\n        require(processingCenter == controller.processingCenterList(processingCenterId), \"Not a valid processing center\");\n        _;\n    }\n    \n    constructor(bytes32 _jewelerId, address _admin, address _diamondRegistry) public {\n        jewelerId = _jewelerId;\n        admin = _admin;\n        controller = Controller(msg.sender);\n        diamondRegistry = DiamondRegistry(_diamondRegistry);\n    }\n    \n    function receiveDiamond(bytes32 _diamondId, address _diamondAddress, bytes32 _processingCenterId) public onlyValidProcessingCenter(msg.sender, _processingCenterId){\n        Diamond daimondInstance = Diamond(_diamondAddress);\n        daimondInstance.receivedByJeweler(jewelerId);\n        diamondsWithJeweler[_diamondId] = DiamondDetails(false, _diamondAddress);\n    }\n    \n    // confirmation by jeweler that he has received the diamond and has correct properties\n    function verifyDiamond(bytes32 _diamondId, bool _isVerified) public onlyAdmin {\n        address localDiamondAddress = diamondsWithJeweler[_diamondId].diamondAddress;\n        address diamondRegistryAddress = diamondRegistry.registry(_diamondId);\n        require(localDiamondAddress == diamondRegistryAddress, \"DiamondId and DiamondAddress does not match\");\n        diamondsWithJeweler[_diamondId].isVerified = _isVerified;\n    }\n    \n    function sellDiamond(bytes32 _diamondId) public onlyAdmin {\n        require(diamondsWithJeweler[_diamondId].isVerified, \"Diamond is not yet verified by jeweler\");\n        address diamondAddress = diamondRegistry.registry(_diamondId);\n        Diamond(diamondAddress).soldToCustomer();\n    }\n}",
  "sourcePath": "/Users/prateekyammanuru/work/interviews/bosch/Diamond_Supply_Chain/contracts/contracts/Jeweler.sol",
  "compiler": {
    "name": "solc",
    "version": "0.5.0+commit.1d4f565a.Emscripten.clang"
  },
  "schemaVersion": "3.0.1",
  "updatedAt": "2019-01-31T18:02:59.704Z",
  "devdoc": {
    "methods": {}
  },
  "userdoc": {
    "methods": {}
  }
}