{
  "contractName": "Mine",
  "abi": [
    {
      "constant": true,
      "inputs": [],
      "name": "location",
      "outputs": [
        {
          "name": "",
          "type": "bytes32"
        }
      ],
      "payable": false,
      "stateMutability": "view",
      "type": "function"
    },
    {
      "inputs": [
        {
          "name": "_mineId",
          "type": "bytes32"
        },
        {
          "name": "_location",
          "type": "bytes32"
        },
        {
          "name": "_mineAdmin",
          "type": "address"
        }
      ],
      "payable": false,
      "stateMutability": "nonpayable",
      "type": "constructor"
    },
    {
      "anonymous": false,
      "inputs": [
        {
          "indexed": true,
          "name": "oreId",
          "type": "bytes32"
        },
        {
          "indexed": true,
          "name": "mineId",
          "type": "bytes32"
        },
        {
          "indexed": false,
          "name": "location",
          "type": "bytes32"
        },
        {
          "indexed": false,
          "name": "clarity",
          "type": "uint256"
        },
        {
          "indexed": false,
          "name": "caratWeight",
          "type": "uint256"
        }
      ],
      "name": "OreFound",
      "type": "event"
    },
    {
      "anonymous": false,
      "inputs": [
        {
          "indexed": true,
          "name": "oreId",
          "type": "bytes32"
        },
        {
          "indexed": true,
          "name": "processingCenterId",
          "type": "bytes32"
        }
      ],
      "name": "ProcessOre",
      "type": "event"
    },
    {
      "constant": false,
      "inputs": [
        {
          "name": "_oreId",
          "type": "bytes32"
        },
        {
          "name": "_mineId",
          "type": "bytes32"
        },
        {
          "name": "_clarity",
          "type": "uint256"
        },
        {
          "name": "_caratWeight",
          "type": "uint256"
        }
      ],
      "name": "foundOre",
      "outputs": [],
      "payable": false,
      "stateMutability": "nonpayable",
      "type": "function"
    },
    {
      "constant": false,
      "inputs": [
        {
          "name": "_oreId",
          "type": "bytes32"
        },
        {
          "name": "_processingCenterId",
          "type": "bytes32"
        }
      ],
      "name": "processOre",
      "outputs": [],
      "payable": false,
      "stateMutability": "nonpayable",
      "type": "function"
    }
  ],
  "bytecode": "0x608060405234801561001057600080fd5b506040516060806108828339810180604052606081101561003057600080fd5b810190808051906020019092919080519060200190929190805190602001909291905050508260018190555081600281905550806000806101000a81548173ffffffffffffffffffffffffffffffffffffffff021916908373ffffffffffffffffffffffffffffffffffffffff16021790555033600360006101000a81548173ffffffffffffffffffffffffffffffffffffffff021916908373ffffffffffffffffffffffffffffffffffffffff16021790555050505061078c806100f66000396000f3fe608060405260043610610057576000357c0100000000000000000000000000000000000000000000000000000000900463ffffffff1680630b90b04e1461005c578063516f279e146100a1578063dd8283c7146100cc575b600080fd5b34801561006857600080fd5b5061009f6004803603604081101561007f57600080fd5b810190808035906020019092919080359060200190929190505050610125565b005b3480156100ad57600080fd5b506100b661059a565b6040518082815260200191505060405180910390f35b3480156100d857600080fd5b50610123600480360360808110156100ef57600080fd5b81019080803590602001909291908035906020019092919080359060200190929190803590602001909291905050506105a0565b005b6000809054906101000a900473ffffffffffffffffffffffffffffffffffffffff1673ffffffffffffffffffffffffffffffffffffffff163373ffffffffffffffffffffffffffffffffffffffff161415156101e9576040517f08c379a000000000000000000000000000000000000000000000000000000000815260040180806020018281038252601a8152602001807f53656e646572206973206e6f742061206d696e652061646d696e00000000000081525060200191505060405180910390fd5b6000600360009054906101000a900473ffffffffffffffffffffffffffffffffffffffff16905060008173ffffffffffffffffffffffffffffffffffffffff1663a811e241846040518263ffffffff167c01000000000000000000000000000000000000000000000000000000000281526004018082815260200191505060206040518083038186803b15801561027f57600080fd5b505afa158015610293573d6000803e3d6000fd5b505050506040513d60208110156102a957600080fd5b81019080805190602001909291905050509050600073ffffffffffffffffffffffffffffffffffffffff168173ffffffffffffffffffffffffffffffffffffffff1614151515610387576040517f08c379a00000000000000000000000000000000000000000000000000000000081526004018080602001828103825260328152602001807f5468652070726f63657373696e672063656e746572207769746820676976656e81526020017f20696420646f6573206e6f74206578697374000000000000000000000000000081525060400191505060405180910390fd5b6000819050610394610731565b600460008781526020019081526020016000206080604051908101604052908160008201548152602001600182015481526020016002820154815260200160038201548152505090506000600102816000015114151515610483576040517f08c379a00000000000000000000000000000000000000000000000000000000081526004018080602001828103825260268152602001807f4f7265207769746820737065636966696564206f7265496420646f65736e277481526020017f206578697374000000000000000000000000000000000000000000000000000081525060400191505060405180910390fd5b8173ffffffffffffffffffffffffffffffffffffffff166336c9e292878360200151846040015185606001516040518563ffffffff167c010000000000000000000000000000000000000000000000000000000002815260040180858152602001848152602001838152602001828152602001945050505050600060405180830381600087803b15801561051657600080fd5b505af115801561052a573d6000803e3d6000fd5b5050505060046000878152602001908152602001600020600080820160009055600182016000905560028201600090556003820160009055505084867f1c7765113e449bdd972976ff4e92f939426ac189d6dc06975ccacfe253cdb3a160405160405180910390a3505050505050565b60025481565b6000809054906101000a900473ffffffffffffffffffffffffffffffffffffffff1673ffffffffffffffffffffffffffffffffffffffff163373ffffffffffffffffffffffffffffffffffffffff16141515610664576040517f08c379a000000000000000000000000000000000000000000000000000000000815260040180806020018281038252601a8152602001807f53656e646572206973206e6f742061206d696e652061646d696e00000000000081525060200191505060405180910390fd5b61066c610731565b608060405190810160405280868152602001858152602001848152602001838152509050806004600087815260200190815260200160002060008201518160000155602082015181600101556040820151816002015560608201518160030155905050806020015181600001517f0bc0f59e844a806718b2e0d1f41cb47822f78a83b1242516da3ff9ebe69005226002548460400151856060015160405180848152602001838152602001828152602001935050505060405180910390a35050505050565b60806040519081016040528060008019168152602001600080191681526020016000815260200160008152509056fea165627a7a72305820637ea393f16353ce220ff431fb018e64c63f9a20d6c49163b7f2d00f84afdb300029",
  "source": "pragma solidity ^0.5.0;\n\nimport \"./ProcessingCenter.sol\";\nimport \"./Controller.sol\";\n\ncontract Mine {\n    struct UnprocessedOre {\n        bytes32 oreId;\n        bytes32 mineId;\n        uint clarity;\n        uint caratWeight;\n    }\n    \n    address admin;\n    bytes32 mineId;\n    bytes32 public location;\n    address controllerAddress;\n    \n    mapping(bytes32 => UnprocessedOre) unprocessedOres;\n    \n    event OreFound(bytes32 indexed oreId, bytes32 indexed mineId, bytes32 location, uint clarity, uint caratWeight);\n    event ProcessOre(bytes32 indexed oreId, bytes32 indexed processingCenterId);\n    \n    modifier adminOnly() {\n        require(msg.sender == admin, \"Sender is not a mine admin\");\n        _;\n    }\n    \n    constructor(bytes32 _mineId, bytes32 _location, address _mineAdmin) public {\n        mineId = _mineId;\n        location = _location;\n        admin = _mineAdmin;\n        controllerAddress = msg.sender;\n    }\n    \n    function foundOre(bytes32 _oreId, bytes32 _mineId, uint _clarity, uint _caratWeight) public adminOnly {\n        UnprocessedOre memory newOre = UnprocessedOre(_oreId, _mineId, _clarity, _caratWeight);\n        unprocessedOres[_oreId] = newOre;\n        emit OreFound(newOre.oreId, newOre.mineId, location, newOre.clarity, newOre.caratWeight);\n    }\n    \n    function processOre(bytes32 _oreId, bytes32 _processingCenterId) public adminOnly {\n        Controller controller = Controller(controllerAddress);\n        address processingCenterAddress = controller.processingCenterList(_processingCenterId);\n        require(processingCenterAddress != address(0x00), \"The processing center with given id does not exist\");\n        ProcessingCenter processingCenter = ProcessingCenter(processingCenterAddress);\n        UnprocessedOre memory ore = unprocessedOres[_oreId];\n        require(ore.oreId != bytes32(0), \"Ore with specified oreId doesn't exist\");\n        processingCenter.processOre(_oreId, ore.mineId, ore.clarity, ore.caratWeight);\n        delete unprocessedOres[_oreId];\n        emit ProcessOre(_oreId, _processingCenterId);\n    }\n    \n}",
  "sourcePath": "/Users/prateekyammanuru/work/interviews/bosch/Diamond_Supply_Chain/contracts/contracts/Mine.sol",
  "compiler": {
    "name": "solc",
    "version": "0.5.0+commit.1d4f565a.Emscripten.clang"
  },
  "schemaVersion": "3.0.1",
  "updatedAt": "2019-01-31T18:02:59.706Z",
  "devdoc": {
    "methods": {}
  },
  "userdoc": {
    "methods": {}
  }
}