{
  "contractName": "ProcessingCenter",
  "abi": [
    {
      "constant": true,
      "inputs": [
        {
          "name": "",
          "type": "bytes32"
        }
      ],
      "name": "diamondsWithProcessingCenter",
      "outputs": [
        {
          "name": "",
          "type": "address"
        }
      ],
      "payable": false,
      "stateMutability": "view",
      "type": "function"
    },
    {
      "inputs": [
        {
          "name": "_processingCenterId",
          "type": "bytes32"
        },
        {
          "name": "_admin",
          "type": "address"
        },
        {
          "name": "_diamondRegistry",
          "type": "address"
        }
      ],
      "payable": false,
      "stateMutability": "nonpayable",
      "type": "constructor"
    },
    {
      "anonymous": false,
      "inputs": [
        {
          "indexed": true,
          "name": "oreId",
          "type": "bytes32"
        },
        {
          "indexed": true,
          "name": "diamondId",
          "type": "bytes32"
        },
        {
          "indexed": false,
          "name": "caratWeight",
          "type": "uint256"
        },
        {
          "indexed": false,
          "name": "clarity",
          "type": "uint256"
        },
        {
          "indexed": false,
          "name": "color",
          "type": "uint256"
        },
        {
          "indexed": false,
          "name": "cut",
          "type": "uint256"
        },
        {
          "indexed": false,
          "name": "shape",
          "type": "uint256"
        }
      ],
      "name": "DiamondProduced",
      "type": "event"
    },
    {
      "anonymous": false,
      "inputs": [
        {
          "indexed": true,
          "name": "oreId",
          "type": "bytes32"
        },
        {
          "indexed": false,
          "name": "unaccountedWeight",
          "type": "uint256"
        }
      ],
      "name": "OreProcessed",
      "type": "event"
    },
    {
      "anonymous": false,
      "inputs": [
        {
          "indexed": true,
          "name": "jewelarId",
          "type": "bytes32"
        },
        {
          "indexed": true,
          "name": "diamondId",
          "type": "bytes32"
        }
      ],
      "name": "SentToJeweler",
      "type": "event"
    },
    {
      "constant": false,
      "inputs": [
        {
          "name": "_oreId",
          "type": "bytes32"
        },
        {
          "name": "_mineId",
          "type": "bytes32"
        },
        {
          "name": "_clarity",
          "type": "uint256"
        },
        {
          "name": "_caratWeight",
          "type": "uint256"
        }
      ],
      "name": "processOre",
      "outputs": [],
      "payable": false,
      "stateMutability": "nonpayable",
      "type": "function"
    },
    {
      "constant": false,
      "inputs": [
        {
          "name": "_oreId",
          "type": "bytes32"
        },
        {
          "name": "_caratWeight",
          "type": "uint256"
        },
        {
          "name": "_clarity",
          "type": "uint256"
        },
        {
          "name": "_color",
          "type": "uint256"
        },
        {
          "name": "_cut",
          "type": "uint256"
        },
        {
          "name": "_shape",
          "type": "uint256"
        }
      ],
      "name": "addDiamond",
      "outputs": [],
      "payable": false,
      "stateMutability": "nonpayable",
      "type": "function"
    },
    {
      "constant": false,
      "inputs": [
        {
          "name": "_oreId",
          "type": "bytes32"
        }
      ],
      "name": "oreProcessed",
      "outputs": [],
      "payable": false,
      "stateMutability": "nonpayable",
      "type": "function"
    },
    {
      "constant": false,
      "inputs": [
        {
          "name": "_diamondId",
          "type": "bytes32"
        },
        {
          "name": "_jewelerId",
          "type": "bytes32"
        }
      ],
      "name": "sendDiamondToJeweler",
      "outputs": [],
      "payable": false,
      "stateMutability": "nonpayable",
      "type": "function"
    }
  ],
  "bytecode": "0x608060405234801561001057600080fd5b506040516060806119898339810180604052606081101561003057600080fd5b8101908080519060200190929190805190602001909291908051906020019092919050505081600160006101000a81548173ffffffffffffffffffffffffffffffffffffffff021916908373ffffffffffffffffffffffffffffffffffffffff1602179055508260008190555033600260006101000a81548173ffffffffffffffffffffffffffffffffffffffff021916908373ffffffffffffffffffffffffffffffffffffffff16021790555080600360006101000a81548173ffffffffffffffffffffffffffffffffffffffff021916908373ffffffffffffffffffffffffffffffffffffffff160217905550505050611858806101316000396000f3fe60806040526004361061006d576000357c0100000000000000000000000000000000000000000000000000000000900463ffffffff1680632c213aa01461007257806336c9e292146100ad5780633e2556041461010657806378be04d31461017357806389af6267146101b8575b600080fd5b34801561007e57600080fd5b506100ab6004803603602081101561009557600080fd5b8101908080359060200190929190505050610233565b005b3480156100b957600080fd5b50610104600480360360808110156100d057600080fd5b81019080803590602001909291908035906020019092919080359060200190929190803590602001909291905050506103ad565b005b34801561011257600080fd5b50610171600480360360c081101561012957600080fd5b810190808035906020019092919080359060200190929190803590602001909291908035906020019092919080359060200190929190803590602001909291905050506105d0565b005b34801561017f57600080fd5b506101b66004803603604081101561019657600080fd5b810190808035906020019092919080359060200190929190505050610ab7565b005b3480156101c457600080fd5b506101f1600480360360208110156101db57600080fd5b8101908080359060200190929190505050610e74565b604051808273ffffffffffffffffffffffffffffffffffffffff1673ffffffffffffffffffffffffffffffffffffffff16815260200191505060405180910390f35b3373ffffffffffffffffffffffffffffffffffffffff16600160009054906101000a900473ffffffffffffffffffffffffffffffffffffffff1673ffffffffffffffffffffffffffffffffffffffff1614151561031e576040517f08c379a00000000000000000000000000000000000000000000000000000000081526004018080602001828103825260348152602001807f4d696e6520646f65736e2774206578697374206f722061646d696e206469642081526020017f6e6f742073656e6420746865207265717565737400000000000000000000000081525060400191505060405180910390fd5b807f9686ac7f0acc7774932a246f6a65602c05eb218f6da15fe8a4402498ea4fba8260046000848152602001908152602001600020600401546040518082815260200191505060405180910390a2600460008281526020019081526020016000206000808201600090556001820160009055600282016000905560038201600090556004820160009055505050565b826000600260009054906101000a900473ffffffffffffffffffffffffffffffffffffffff1673ffffffffffffffffffffffffffffffffffffffff16635cf281f5836040518263ffffffff167c01000000000000000000000000000000000000000000000000000000000281526004018082815260200191505060206040518083038186803b15801561043f57600080fd5b505afa158015610453573d6000803e3d6000fd5b505050506040513d602081101561046957600080fd5b81019080805190602001909291905050509050600073ffffffffffffffffffffffffffffffffffffffff168173ffffffffffffffffffffffffffffffffffffffff16141580156104e457503373ffffffffffffffffffffffffffffffffffffffff168173ffffffffffffffffffffffffffffffffffffffff16145b1515610558576040517f08c379a00000000000000000000000000000000000000000000000000000000081526004018080602001828103825260108152602001807f4e6f7420612076616c6964206d696e650000000000000000000000000000000081525060200191505060405180910390fd5b60a06040519081016040528087815260200186815260200185815260200184815260200184815250600460008881526020019081526020016000206000820151816000015560208201518160010155604082015181600201556060820151816003015560808201518160040155905050505050505050565b3373ffffffffffffffffffffffffffffffffffffffff16600160009054906101000a900473ffffffffffffffffffffffffffffffffffffffff1673ffffffffffffffffffffffffffffffffffffffff161415156106bb576040517f08c379a00000000000000000000000000000000000000000000000000000000081526004018080602001828103825260348152602001807f4d696e6520646f65736e2774206578697374206f722061646d696e206469642081526020017f6e6f742073656e6420746865207265717565737400000000000000000000000081525060400191505060405180910390fd5b6000600260009054906101000a900473ffffffffffffffffffffffffffffffffffffffff1673ffffffffffffffffffffffffffffffffffffffff1663f332ca276040518163ffffffff167c0100000000000000000000000000000000000000000000000000000000028152600401602060405180830381600087803b15801561074357600080fd5b505af1158015610757573d6000803e3d6000fd5b505050506040513d602081101561076d57600080fd5b81019080805190602001909291905050509050600081886000548989898989600260009054906101000a900473ffffffffffffffffffffffffffffffffffffffff166107b7610ea7565b808a81526020018981526020018881526020018781526020018681526020018581526020018481526020018381526020018273ffffffffffffffffffffffffffffffffffffffff1673ffffffffffffffffffffffffffffffffffffffff1681526020019950505050505050505050604051809103906000f080158015610841573d6000803e3d6000fd5b509050600360009054906101000a900473ffffffffffffffffffffffffffffffffffffffff1673ffffffffffffffffffffffffffffffffffffffff1663d1c0995c83600054846040518463ffffffff167c0100000000000000000000000000000000000000000000000000000000028152600401808481526020018381526020018273ffffffffffffffffffffffffffffffffffffffff1673ffffffffffffffffffffffffffffffffffffffff1681526020019350505050600060405180830381600087803b15801561091357600080fd5b505af1158015610927573d6000803e3d6000fd5b50505050806005600084815260200190815260200160002060006101000a81548173ffffffffffffffffffffffffffffffffffffffff021916908373ffffffffffffffffffffffffffffffffffffffff1602179055506000600460008a8152602001908152602001600020600401549050878110151515610a36576040517f08c379a00000000000000000000000000000000000000000000000000000000081526004018080602001828103825260228152602001807f6e6f206d6f7265206f7265206c65667420746f20637265617465206469616d6f81526020017f6e6400000000000000000000000000000000000000000000000000000000000081525060400191505060405180910390fd5b878103600460008b81526020019081526020016000206004018190555082897fc346c4bf2ef676aa4e35b4c9fbd08ee36a38288be179d09faf736221c4657f9e8a8a8a8a8a604051808681526020018581526020018481526020018381526020018281526020019550505050505060405180910390a3505050505050505050565b3373ffffffffffffffffffffffffffffffffffffffff16600160009054906101000a900473ffffffffffffffffffffffffffffffffffffffff1673ffffffffffffffffffffffffffffffffffffffff16141515610ba2576040517f08c379a00000000000000000000000000000000000000000000000000000000081526004018080602001828103825260348152602001807f4d696e6520646f65736e2774206578697374206f722061646d696e206469642081526020017f6e6f742073656e6420746865207265717565737400000000000000000000000081525060400191505060405180910390fd5b60006005600084815260200190815260200160002060009054906101000a900473ffffffffffffffffffffffffffffffffffffffff169050600073ffffffffffffffffffffffffffffffffffffffff168173ffffffffffffffffffffffffffffffffffffffff1614151515610ca5576040517f08c379a000000000000000000000000000000000000000000000000000000000815260040180806020018281038252603b8152602001807f737065636966696564206469616d6f6e64206973206e6f742070726573656e7481526020017f2077697468207468652070726f63657373696e672063656e746572000000000081525060400191505060405180910390fd5b6000600260009054906101000a900473ffffffffffffffffffffffffffffffffffffffff1673ffffffffffffffffffffffffffffffffffffffff1663c5e2f343846040518263ffffffff167c01000000000000000000000000000000000000000000000000000000000281526004018082815260200191505060206040518083038186803b158015610d3657600080fd5b505afa158015610d4a573d6000803e3d6000fd5b505050506040513d6020811015610d6057600080fd5b810190808051906020019092919050505090508073ffffffffffffffffffffffffffffffffffffffff1663a12342c585846000546040518463ffffffff167c0100000000000000000000000000000000000000000000000000000000028152600401808481526020018373ffffffffffffffffffffffffffffffffffffffff1673ffffffffffffffffffffffffffffffffffffffff1681526020018281526020019350505050600060405180830381600087803b158015610e2057600080fd5b505af1158015610e34573d6000803e3d6000fd5b505050506005600085815260200190815260200160002060006101000a81549073ffffffffffffffffffffffffffffffffffffffff021916905550505050565b60056020528060005260406000206000915054906101000a900473ffffffffffffffffffffffffffffffffffffffff1681565b60405161097580610eb88339019056fe608060405234801561001057600080fd5b5060405161012080610975833981018060405261012081101561003257600080fd5b81019080805190602001909291908051906020019092919080519060200190929190805190602001909291908051906020019092919080519060200190929190805190602001909291908051906020019092919080519060200190929190505050886000819055508760098190555086600a819055508560018190555084600281905550836003819055508260048190555081600581905550600160068190555080600b60006101000a81548173ffffffffffffffffffffffffffffffffffffffff021916908373ffffffffffffffffffffffffffffffffffffffff1602179055505050505050505050506108498061012c6000396000f3fe608060405260043610610078576000357c0100000000000000000000000000000000000000000000000000000000900463ffffffff168063200d2ed21461007d578063232b0cb7146100a85780635c85a1ad146100bf5780636c115c6c14610106578063e51d8e7814610131578063ed92abf01461016c575b600080fd5b34801561008957600080fd5b50610092610197565b6040518082815260200191505060405180910390f35b3480156100b457600080fd5b506100bd61019d565b005b3480156100cb57600080fd5b50610104600480360360408110156100e257600080fd5b81019080803590602001909291908035151590602001909291905050506103da565b005b34801561011257600080fd5b5061011b6105d2565b6040518082815260200191505060405180910390f35b34801561013d57600080fd5b5061016a6004803603602081101561015457600080fd5b81019080803590602001909291905050506105d8565b005b34801561017857600080fd5b50610181610817565b6040518082815260200191505060405180910390f35b60065481565b600b60009054906101000a900473ffffffffffffffffffffffffffffffffffffffff1673ffffffffffffffffffffffffffffffffffffffff1663c5e2f3436007546040518263ffffffff167c01000000000000000000000000000000000000000000000000000000000281526004018082815260200191505060206040518083038186803b15801561022e57600080fd5b505afa158015610242573d6000803e3d6000fd5b505050506040513d602081101561025857600080fd5b810190808051906020019092919050505073ffffffffffffffffffffffffffffffffffffffff163373ffffffffffffffffffffffffffffffffffffffff16141515610331576040517f08c379a000000000000000000000000000000000000000000000000000000000815260040180806020018281038252602d8152602001807f4a6577656c6572206973206e6f7420617574686f72697a656420746f2073656c81526020017f6c20746865206469616d6f6e640000000000000000000000000000000000000081525060400191505060405180910390fd5b60046006541415156103d1576040517f08c379a00000000000000000000000000000000000000000000000000000000081526004018080602001828103825260368152602001807f546865206469616d6f6e6420697320656974686572206e6f742063657269666981526020017f6564206f72206e6f742077697468206a6577656c65720000000000000000000081525060400191505060405180910390fd5b60068081905550565b81338073ffffffffffffffffffffffffffffffffffffffff16600b60009054906101000a900473ffffffffffffffffffffffffffffffffffffffff1673ffffffffffffffffffffffffffffffffffffffff1663181729f7846040518263ffffffff167c01000000000000000000000000000000000000000000000000000000000281526004018082815260200191505060206040518083038186803b15801561048257600080fd5b505afa158015610496573d6000803e3d6000fd5b505050506040513d60208110156104ac57600080fd5b810190808051906020019092919050505073ffffffffffffffffffffffffffffffffffffffff1614151561056e576040517f08c379a00000000000000000000000000000000000000000000000000000000081526004018080602001828103825260258152602001807f436572746966696572496420646f6573206e6f74206d6174636820746865207381526020017f656e64657200000000000000000000000000000000000000000000000000000081525060400191505060405180910390fd5b821561058157600260068190555061058a565b60036006819055505b7e9c874d2e9cdea9fc2fc3f9ff61e2d786684f4051c3ec76a38190dcdb5c820c848460405180838152602001821515151581526020019250505060405180910390a150505050565b60075481565b80338073ffffffffffffffffffffffffffffffffffffffff16600b60009054906101000a900473ffffffffffffffffffffffffffffffffffffffff1673ffffffffffffffffffffffffffffffffffffffff1663c5e2f343846040518263ffffffff167c01000000000000000000000000000000000000000000000000000000000281526004018082815260200191505060206040518083038186803b15801561068057600080fd5b505afa158015610694573d6000803e3d6000fd5b505050506040513d60208110156106aa57600080fd5b810190808051906020019092919050505073ffffffffffffffffffffffffffffffffffffffff1614151561076c576040517f08c379a00000000000000000000000000000000000000000000000000000000081526004018080602001828103825260298152602001807f4a6577656c6572496420646f65736e2774206d6174636820776974682073656e81526020017f646572206f66207478000000000000000000000000000000000000000000000081525060400191505060405180910390fd5b826007819055506002600654141561078b576004600681905550610812565b600360065414156107a3576005600681905550610811565b6040517f08c379a000000000000000000000000000000000000000000000000000000000815260040180806020018281038252601c8152602001807f4469616d6f6e64206973206e6f7420796574206365727469666965640000000081525060200191505060405180910390fd5b5b505050565b600a548156fea165627a7a72305820ab7d5b5d182b2a516236fb4cf7c5a04a16e30b7b4e2ac3d9cb1eb776bce0b56f0029a165627a7a723058209fd57806b9d26fa4cb7e24d56e204a0103a433766a414827aa832bd9362040630029",
  "source": "pragma solidity ^0.5.0;\n\nimport \"./Controller.sol\";\nimport \"./Diamond.sol\";\nimport \"./Jeweler.sol\";\nimport \"./DiamondRegistry.sol\";\n\ncontract ProcessingCenter {\n    bytes32 processingCenterId;\n    address admin;\n    Controller controller;\n    DiamondRegistry diamondRegistry;\n    struct ProcessedOre {\n        bytes32 oreId;\n        bytes32 mineId;\n        uint clarity;\n        uint caratWeight;\n        // This is the weight that is not accounted for after getting diamonds from the ore.\n        // So this is wastage\n        uint unaccountedWeight;\n    }\n    // This is basically (oreId => (diamondId => diamondContract))\n    // Mapping of ores currently under processing\n    mapping(bytes32 => ProcessedOre) processedOres;\n    mapping(bytes32 => address) public diamondsWithProcessingCenter;\n    \n    event DiamondProduced(bytes32 indexed oreId, bytes32 indexed diamondId, uint caratWeight, uint clarity, uint color, uint cut, uint shape);\n    event OreProcessed(bytes32 indexed oreId, uint unaccountedWeight);\n    event SentToJeweler(bytes32 indexed jewelarId, bytes32 indexed diamondId);\n    \n    // only allow admin\n    modifier adminOnly(){\n        require(admin == msg.sender, \"Mine doesn't exist or admin did not send the request\");\n        _;\n    }\n    \n    modifier validMineOnly(bytes32 _mineId) {\n        address mineAddress = controller.mineList(_mineId);\n        require(mineAddress != address(0x00) && mineAddress == msg.sender, \"Not a valid mine\");\n        _;\n    }\n    \n    constructor(bytes32 _processingCenterId, address _admin, address _diamondRegistry) public {\n        admin = _admin;\n        processingCenterId = _processingCenterId;\n        controller = Controller(msg.sender);\n        diamondRegistry = DiamondRegistry(_diamondRegistry);\n    }\n    \n    function processOre(bytes32 _oreId, bytes32 _mineId, uint _clarity, uint _caratWeight) public validMineOnly(_mineId) {\n        // make sure the correct mine is sending the request to processOre\n        processedOres[_oreId] = ProcessedOre({\n            oreId: _oreId,\n            mineId: _mineId,\n            clarity: _clarity,\n            caratWeight: _caratWeight,\n            unaccountedWeight: _caratWeight\n        });\n    }\n    \n    // How do you make diamond id unique\n    function addDiamond(bytes32 _oreId, uint _caratWeight, uint _clarity, uint _color, uint _cut, uint _shape) public adminOnly {\n        bytes32 diamondId = controller.getDiamondIndex();\n        address diamondAddress = address(new Diamond(diamondId, _oreId, processingCenterId, _caratWeight, _clarity, _color, _cut, _shape, address(controller)));\n        diamondRegistry.addDiamond(diamondId, processingCenterId, diamondAddress);\n        diamondsWithProcessingCenter[diamondId] = diamondAddress;\n        uint unaccountedOreWeight = processedOres[_oreId].unaccountedWeight;\n        require(unaccountedOreWeight >= _caratWeight, \"no more ore left to create diamond\");\n        processedOres[_oreId].unaccountedWeight = unaccountedOreWeight - _caratWeight;\n        emit DiamondProduced(_oreId, diamondId, _caratWeight, _clarity, _color, _cut, _shape);\n    }\n    \n    function oreProcessed(bytes32 _oreId) public adminOnly {\n        emit OreProcessed(_oreId, processedOres[_oreId].unaccountedWeight);\n        delete processedOres[_oreId];\n    }\n    \n    function sendDiamondToJeweler(bytes32 _diamondId, bytes32 _jewelerId) public adminOnly {\n        // check if diamond is correct\n        address diamondAddress = diamondsWithProcessingCenter[_diamondId];\n        require(diamondAddress != address(0x00), \"specified diamond is not present with the processing center\");\n        address jewelerAddress = controller.jewelerList(_jewelerId);\n        Jeweler(jewelerAddress).receiveDiamond(_diamondId, diamondAddress, processingCenterId);\n        delete diamondsWithProcessingCenter[_diamondId];\n    }\n}",
  "sourcePath": "/Users/prateekyammanuru/work/interviews/bosch/Diamond_Supply_Chain/contracts/contracts/ProcessingCenter.sol",
  "compiler": {
    "name": "solc",
    "version": "0.5.0+commit.1d4f565a.Emscripten.clang"
  },
  "schemaVersion": "3.0.1",
  "updatedAt": "2019-01-31T18:02:59.713Z",
  "devdoc": {
    "methods": {}
  },
  "userdoc": {
    "methods": {}
  }
}